:100000000C9463000C948B000C948B000C948B006C
:100010000C948B000C948B000C948B000C94EB03D1
:100020000C948B000C948B000C948B000C949F040C
:100030000C948B000C948B000C948B000C948B0014
:100040000C94A1030C948B000C946D040C94470445
:100050000C948B000C948B000C948B000C948B00F4
:100060000C948B000C948B000200000000240027ED
:10007000002A0000000000250028002B00000000DE
:1000800000230026002900040404040404040402DC
:100090000202020202030303030303010204081025
:1000A00020408001020408102001020408102000F2
:1000B0000000080002010000030407000000000027
:1000C000000000005B0511241FBECFEFD8E0DEBFAB
:1000D000CDBF11E0A0E0B1E0E6E8F7E102C0059095
:1000E0000D92A634B107D9F722E0A6E4B1E001C031
:1000F0001D92AA32B207E1F710E0C3E6D0E004C0D7
:100100002197FE010E94C009C236D107C9F70E949B
:10011000B8050C94C10B0C940000833081F028F4D6
:10012000813099F08230A9F008958730A9F08830A5
:10013000C9F08430B1F4809180008F7D03C080913C
:1001400080008F7780938000089584B58F7784BD79
:10015000089584B58F7DFBCF8091B0008F77809319
:10016000B00008958091B0008F7DF9CFCF93DF93D9
:10017000282F30E0F901E155FF4F8491F901E55650
:10018000FF4FD491F901E957FF4FC491CC23A1F05F
:1001900081110E948D00EC2FF0E0EE0FFF1FE3585D
:1001A000FF4FA591B491EC91ED2381E090E009F42B
:1001B00080E0DF91CF91089580E090E0FACF1F9327
:1001C000CF93DF93282F30E0F901E155FF4F849161
:1001D000F901E556FF4FD491F901E957FF4FC4915A
:1001E000CC23A9F0162F81110E948D00EC2FF0E096
:1001F000EE0FFF1FED58FF4FA591B4918FB7F89404
:10020000EC91111108C0D095DE23DC938FBFDF91F4
:10021000CF911F910895DE2BF8CFCF93DF9390E01D
:10022000FC01E556FF4F249189579F4FFC018491B3
:100230008823C9F090E0880F991FFC01E759FF4F10
:10024000A591B491FC01ED58FF4FC591D491611176
:100250000DC09FB7F8948C91209582238C93888150
:10026000282328839FBFDF91CF910895623051F4F6
:100270009FB7F8943C91822F809583238C93E881DB
:100280002E2BEFCF8FB7F894EC912E2B2C938FBFA2
:10029000EACF3FB7F8948091590190915A01A0910B
:1002A0005B01B0915C0126B5A89B05C02F3F19F0FA
:1002B0000196A11DB11D3FBFBA2FA92F982F8827E6
:1002C000BC01CD01620F711D811D911D42E0660FC1
:1002D000771F881F991F4A95D1F7089590910001C3
:1002E00089130BC0E8E6F0E0E4919FEF90930001E2
:1002F000E13049F028F0E23061F060E00C94DF007A
:1003000010926E00FACF90916F009D7F90936F00D6
:10031000F4CF909170009D7F9093700091E0909346
:10032000B0009091B100987F94609093B1001092CA
:10033000B300E3CFAF92BF92CF92DF92EF92FF92E2
:100340000F931F93CF93DF936C017B018B01040FFD
:10035000151FEB015E01AE18BF08C017D10759F099
:100360006991D601ED91FC910190F081E02DC601DB
:100370000995892B79F7C501DF91CF911F910F91D5
:10038000FF90EF90DF90CF90BF90AF900895FC0169
:10039000538D448D252F30E0842F90E0821B930BEA
:1003A000541710F0CF96089501970895FC01918D90
:1003B000828D981761F0A28DAE0FBF2FB11D5D9693
:1003C0008C91928D9F5F9F73928F90E008958FEF35
:1003D0009FEF08952FB7F89480915D0190915E0191
:1003E000A0915F01B09160012FBF8093690190934C
:1003F0006A01A0936B01B0936C0181E691E00E94C9
:10040000D60197FF26C02FB7F89480915D01909197
:100410005E01A0915F01B09160012FBF4091690121
:1004200050916A0160916B0170916C01841B950B76
:10043000A60BB70B40916501509166016091670171
:100440007091680184179507A607B707B0F28FEF80
:100450009FEF0895FC01918D828D981731F0828D68
:10046000E80FF11D858D90E008958FEF9FEF0895BF
:10047000FC01918D228D892F90E0805C9F4F821B23
:1004800091098F739927089581E691E00E943802BF
:1004900021E0892B09F420E0822F089580E090E08C
:1004A000892B29F00E94440281110C9400000895C8
:1004B000FC01A48DA80FB92FB11DA35ABF4F2C91D9
:1004C000848D90E001968F739927848FA689B789D0
:1004D0002C93A089B1898C91837080648C93938DC7
:1004E000848D981306C00288F389E02D80818F7D6A
:1004F00080830895EF92FF920F931F93CF93DF9322
:10050000EC0181E0888F9B8D8C8D98131AC0E8894F
:10051000F989808185FF15C09FB7F894EE89FF891E
:100520006083E889F98980818370806480839FBFBC
:1005300081E090E0DF91CF911F910F91FF90EF90BC
:100540000895F62E0B8D10E00F5F1F4F0F731127CC
:10055000E02E8C8D8E110CC00FB607FCFACFE88907
:10056000F989808185FFF5CFCE010E945802F1CF35
:10057000EB8DEC0FFD2FF11DE35AFF4FF0829FB77B
:10058000F8940B8FEA89FB8980818062CFCFCF936B
:10059000DF93EC01888D8823B9F0AA89BB89E889AB
:1005A000F9898C9185FD03C0808186FD0DC00FB651
:1005B00007FCF7CF8C9185FFF2CF808185FFEDCFCF
:1005C000CE010E945802E9CFDF91CF910895FC013E
:1005D00001900020E9F73197AF01481B590BBC018E
:1005E00081E691E00C949A018F929F92AF92BF9214
:1005F000CF92DF92EF92FF920F931F93CF93DF93EF
:10060000CDB7DEB7A1970FB6F894DEBF0FBECDBF52
:100610006C01990FEE08FF08F7FE47C06DE281E616
:1006200091E00E947A028C0122273327A9012C191C
:100630003D094E095F0919A2CE0181967C019AE01D
:10064000892E912CA12CB12CCA01B901A5019401CC
:100650000E947C09605DF70162937F0121153105DD
:100660004105510589F790E080E0309719F0CF01FE
:100670000E94E702080F191F8FE191E00E94E70234
:10068000800F911FA1960FB6F894DEBF0FBECDBFAD
:10069000DF91CF911F910F91FF90EF90DF90CF905E
:1006A000BF90AF909F908F900895A701960119A2D7
:1006B0008E010F5D1F4F8AE0C82ED12CE12CF12C4A
:1006C000CA01B901A70196010E947C09605DF80189
:1006D00062938F01211531054105510589F7309746
:1006E00029F0CF010E94E7028C01C6CF10E000E0A4
:1006F000C3CF0F931F93CF93DF93EC018881998130
:10070000009759F02A813B812617370730F081E0A6
:10071000DF91CF911F910F9108958B016F5F7F4FF4
:100720000E94EB0A009759F0998388831B830A8300
:100730002C813D81232B59F7FC011082E8CF80E00A
:10074000E7CF1F920F920FB60F9211242F933F9372
:100750008F939F93AF93BF9380915D0190915E01C2
:10076000A0915F01B09160013091580123E0230F07
:100770002D3758F50196A11DB11D20935801809386
:100780005D0190935E01A0935F01B0936001809141
:10079000590190915A01A0915B01B0915C010196C1
:1007A000A11DB11D8093590190935A01A0935B0143
:1007B000B0935C01BF91AF919F918F913F912F9129
:1007C0000F900FBE0F901F90189526E8230F0296EA
:1007D000A11DB11DD2CF1F920F920FB60F921124FF
:1007E0002F933F934F935F936F937F938F939F9339
:1007F000AF93BF93EF93FF9380914C0190914D0184
:10080000A0914E01B0914F01892B8A2B8B2BD1F1F6
:1008100090914701E0914801F09149018081892739
:10082000808380914C0190914D01A0914E01B09137
:100830004F01181619061A061B069CF480914C01EC
:1008400090914D01A0914E01B0914F010197A109E6
:10085000B10980934C0190934D01A0934E01B09348
:100860004F01FF91EF91BF91AF919F918F917F9138
:100870006F915F914F913F912F910F900FBE0F900D
:100880001F901895809100010E946E01EACF1F927F
:100890000F920FB60F9211242F933F934F935F93B4
:1008A0006F937F938F939F93AF93BF93EF93FF9338
:1008B00081E691E00E945802FF91EF91BF91AF91C4
:1008C0009F918F917F916F915F914F913F912F9168
:1008D0000F900FBE0F901F9018951F920F920FB69A
:1008E0000F9211242F938F939F93EF93FF93E09197
:1008F0007101F09172018081E0917701F0917801AE
:1009000082FD1BC0908180917A018F5F8F7320914F
:100910007B01821741F0E0917A01F0E0EF59FE4F40
:10092000958F80937A01FF91EF919F918F912F91F5
:100930000F900FBE0F901F9018958081F4CF1F92DB
:100940000F920FB60F9211242F933F934F935F9303
:100950006F937F938F939F93AF93BF93CF93DF93C7
:10096000EF93FF9380914601C0912202D0E087FF70
:1009700024C01092850010928400809146018F5F00
:100980008093460180914601082E000C990B8C172C
:100990009D0724F4809146018C30C4F1809184003D
:1009A00090918500049680349C4908F47AC0809127
:1009B000840090918500049676C080914601082EAF
:1009C000000C990B8C179D07C4F6E09146018E2F01
:1009D000EE0F990BFC01EE0FFF1FE80FF91FE2501D
:1009E000FE4F808186FFC9CFE09146018E2FEE0F2A
:1009F000990BFC01EE0FFF1FE80FF91FE250FE4FAD
:100A0000808160E08F730E94DF00B7CF2091840067
:100A100030918500E09146018E2FEE0F990BFC017D
:100A2000EE0FFF1FE80FF91FE250FE4F8181928108
:100A3000820F931F9093890080938800E091460174
:100A40008E2FEE0F990BFC01EE0FFF1FE80FF91F21
:100A5000E250FE4F808186FF11C0E09146018E2F4B
:100A6000EE0F990BFC01EE0FFF1FE80FF91FE2508C
:100A7000FE4F808161E08F730E94DF00FF91EF9154
:100A8000DF91CF91BF91AF919F918F917F916F91A6
:100A90005F914F913F912F910F900FBE0F901F903C
:100AA000189580E49CE990938900809388008FEFEB
:100AB00080934601E3CF109264011092630188EEA7
:100AC00093E0A0E0B0E08093650190936601A0936D
:100AD0006701B093680181E191E090936201809396
:100AE000610185EC90E090936E0180936D0184EC40
:100AF00090E09093700180936F0180EC90E0909370
:100B000072018093710181EC90E090937401809365
:100B1000730182EC90E0909376018093750186ECEE
:100B200090E0909378018093770110927A0110926F
:100B30007B0110927C0110927D01809122028C3009
:100B400098F491E0980F909322028093230290E012
:100B5000FC01EE0FFF1FE80FF91FE250FE4F88EB7C
:100B60009BE09283818308958FEF80932302089501
:100B7000CF93DF93CDB7DEB728970FB6F894DEBFDB
:100B80000FBECDBF789484B5826084BD84B581608A
:100B900084BD85B5826085BD85B5816085BD809148
:100BA0006E00816080936E001092810080918100C0
:100BB00082608093810080918100816080938100B8
:100BC000809180008160809380008091B10084607A
:100BD0008093B1008091B00081608093B0008091DB
:100BE0007A00846080937A0080917A00826080939A
:100BF0007A0080917A00816080937A0080917A00F7
:100C0000806880937A001092C100E0917101F091A8
:100C1000720182E08083E0916D01F0916E0110829B
:100C2000E0916F01F091700180E180831092790171
:100C3000E0917501F091760186E08083E091730187
:100C4000F0917401808180618083E0917301F09163
:100C50007401808188608083E0917301F091740158
:100C6000808180688083E0917301F09174018081BC
:100C70008F7D808362E082E00E940D0160E084E06D
:100C80000E940D0161E088E00E940D018091230225
:100C90008C3008F051C061E089E00E940D01809124
:100CA0002302282F30E0F901EE0FFF1FE20FF31FA0
:100CB000E250FE4F9081907C9960908310922402C4
:100CC000109225022CE0622F0E94AD09829FB00194
:100CD000112430E020E0AB01420F531FFA01EE0F68
:100CE000FF1FE40FF51FE250FE4F908196FD16C0E6
:100CF0002F5F3F4F2C30310571F781110FC01092DB
:100D0000800082E080938100109285001092840020
:100D1000B19A80916F00826080936F00E09123020E
:100D20008E2F90E0FC01EE0FFF1FE80FF91FE2503D
:100D3000FE4F80818064808382E291E00E94E7021E
:100D40008FE191E00E94E702CC24CA94DC2C76016A
:100D5000B8E52B2EB2E03B2E82E00E94B6008C015B
:100D600084E00E94B6005C0161E00115110509F004
:100D700060E088E00E94DF0080910501909106010B
:100D80000817190759F088E291E00E94E702C801AC
:100D90000E94F40210930601009305018091030163
:100DA00090910401A816B90659F08EE291E00E94D4
:100DB000E702C5010E94F402B0920401A09203016F
:100DC00080E480937C0080917A00806480937A0034
:100DD00080917A0086FDFCCF009178001091790017
:100DE00080910101909102019801281B390BC901E2
:100DF00037FF03C091958195910904970CF48BC03E
:100E000084E391E00E94E702C8010E94F40210937B
:100E100002010093010124EB30E0D8010E94B909DE
:100E20002FEF33E040E050E00E941309C90149016F
:100E3000803232E09307DCF520912402E8E88E2E20
:100E4000912C821A910827FD9394880C991C880C88
:100E5000991C092C000CAA08BB0820912502A101AD
:100E6000421B510927FD53959A01220F331F220F70
:100E7000331F032E000C440B550B281939094A095E
:100E80005B09DC01853B910514F0A4EBB0E0B7FFF2
:100E900002C0B0E0A0E00E943D0924EB30E040E059
:100EA00050E00E941309820E931EA41EB51E2091CD
:100EB00023022C3080F580912402E8E8F0E0E81B62
:100EC000F10987FDF395CF01880F991F880F991FAE
:100ED0008816990684F080912502A101481B5109CA
:100EE00087FD5395CA01880F991F880F991F88168F
:100EF00099060CF4C4010297880F991F4FB7F89414
:100F000030E0F901EE0FFF1FE20FF31FE250FE4F3A
:100F1000928381834FBF81E691E00E943802892B42
:100F200009F448C11A8219821C821B821E821D820A
:100F300070E060E0CE0101960E94790329813A8138
:100F400081112EC02115310519F0C9010E94620AD4
:100F50001A8219821E821D821C821B820E94EA0153
:100F600097FD26C08A30910519F18F8318860D816F
:100F70001E810F5F1F4FB801CE0101960E947903B9
:100F8000882361F329813A818D819E81BE01695F49
:100F90007F4F820F931F0E94BA0B1E830D83DECFFB
:100FA0001E821D8261E271E0C9010E94BA0BD6CF98
:100FB00089E391E00E94E7024D815E8169817A8137
:100FC00081E691E00E949A018FE191E00E94E702A0
:100FD0008D819E81892B09F4E7C061E471E08981EC
:100FE0009A810E94B10B892B09F0D3C08091000136
:100FF000873031F5E8E6F0E0149117FDCAC061E0F2
:1010000087E00E940D01112309F48FC0123009F00E
:10101000A0C08091B100887F85608093B1008DE889
:101020008093B300C0924C01D0924D01E0924E01EA
:10103000F0924F0180917000826080937000A5C093
:101040008F3F09F0A6C087E080930001E8E6F0E05A
:1010500014911F3F09F49DC0113029F150F0123056
:1010600009F440C017FD95C061E087E00E940D01C2
:10107000CDCF14BC15BC84B5826084BD85B58160BC
:1010800085BDEEE8F0E08491E82FF0E0EE0FFF1F61
:10109000ED58FF4F85919491E2EAF0E0E491E093FE
:1010A0004B0110E0ACCF1092800010928100809133
:1010B00081008860809381008091810081608093AD
:1010C0008100EEE8F0E08491E82FF0E0EE0FFF1FE2
:1010D000ED58FF4F85919491E2EAF0E0E491E093BE
:1010E0004A018DCF1092B0001092B1008091B000F3
:1010F00082608093B0008091B10081608093B100E4
:10110000EEE8F0E08491E82FF0E0EE0FFF1FED58DD
:10111000FF4F859194919093490180934801E2EAB1
:10112000F0E0E491E09347016ACF85B5887F846061
:1011300085BD86E487BDC0925401D0925501E092EE
:101140005601F092570180916E00826080936E008C
:101150001CC0113009F05FC080918100887F8160E0
:101160008093810024E037E4309389002093880045
:10117000C0925001D0925101E0925201F09253017D
:1011800080916F00826080936F008D819E81892B9A
:1011900059F06FE371E089819A810E94B10B892B2C
:1011A00019F487E00E946E0189819A81009711F0FD
:1011B0000E94620A0E9449014B015C018AE0482EAC
:1011C000512C612C712C0E944901681979098A09F6
:1011D0009B09683E734081059105A8F331E0431AED
:1011E00051086108710848EE840E43E0941EA11C6A
:1011F000B11C411451046104710429F780E090E0AE
:10120000892B09F4A9CD0E944402882309F4A0CDBA
:101210000E9400009DCD123021F01111B6CF84E064
:1012200089CF84E0FDCE052E97FB1EF400940E942A
:101230002A0957FD07D00E947C0907FC03D04EF411
:101240000C942A0950954095309521953F4F4F4F6A
:101250005F4F089590958095709561957F4F8F4F62
:101260009F4F08950E949E09A59F900DB49F900DD9
:10127000A49F800D911D11240895B7FF0C9432098D
:101280000E943209821B930B08952F923F924F9236
:101290005F926F927F928F929F92AF92BF92CF9206
:1012A000DF92EF92FF920F931F93CF93DF93CDB70F
:1012B000DEB7CA1BDB0B0FB6F894DEBF0FBECDBF87
:1012C00009942A88398848885F846E847D848C8458
:1012D0009B84AA84B984C884DF80EE80FD800C8161
:1012E0001B81AA81B981CE0FD11D0FB6F894DEBF44
:1012F0000FBECDBFED010895A1E21A2EAA1BBB1BA4
:10130000FD010DC0AA1FBB1FEE1FFF1FA217B307D1
:10131000E407F50720F0A21BB30BE40BF50B661FE7
:10132000771F881F991F1A9469F7609570958095AB
:1013300090959B01AC01BD01CF010895A29FB00122
:10134000B39FC001A39F700D811D1124911DB29FF9
:10135000700D811D1124911D0895991B79E004C021
:10136000991F961708F0961B881F7A95C9F78095E4
:1013700008950E949E09B7FF0895821B930B08955C
:10138000EE0FFF1F0590F491E02D09940F931F932A
:10139000CF93DF938230910510F482E090E0E091EA
:1013A0002802F091290230E020E0B0E0A0E0309780
:1013B00099F42115310509F44AC0281B390B243052
:1013C0003105D8F58A819B816115710589F1FB0191
:1013D00093838283FE0111C0408151810281138178
:1013E00048175907E0F04817590799F4109761F02A
:1013F00012960C93129713961C933296CF01DF919D
:10140000CF911F910F910895009328021093290204
:10141000F4CF2115310551F04217530738F0A901D7
:10142000DB019A01BD01DF01F801C1CFEF01F9CF66
:101430009093290280932802CDCFFE01E20FF31F83
:10144000819391932250310939832883D7CF2091FA
:10145000260230912702232B41F42091090130917B
:101460000A01309327022093260220910701309130
:1014700008012115310541F42DB73EB740910B010C
:1014800050910C01241B350BE0912602F0912702AC
:10149000E217F307A0F42E1B3F0B2817390778F04B
:1014A000AC014E5F5F4F2417350748F04E0F5F1FAA
:1014B0005093270240932602819391939FCFF0E0AF
:1014C000E0E09CCFCF93DF930097E9F0FC013297E7
:1014D00013821282A0912802B0912902ED0130E01E
:1014E00020E01097A1F420813181820F931F209179
:1014F0002602309127022817390709F061C0F093BE
:101500002702E0932602DF91CF910895EA01CE17DA
:10151000DF07E8F54A815B819E0141155105B1F76E
:10152000E901FB83EA8349915991C40FD51FEC1758
:10153000FD0761F4808191810296840F951FE90176
:1015400099838883828193819B838A83F0E0E0E0A2
:1015500012968D919C9113970097B9F52D913C911E
:101560001197CD010296820F931F20912602309190
:1015700027022817390739F6309751F510922902BA
:1015800010922802B0932702A0932602BCCFD383E7
:10159000C28340815181840F951FC817D90761F418
:1015A0004E5F5F4F88819981480F591F5183408357
:1015B0008A819B81938382832115310509F0B0CF05
:1015C000F0932902E09328029ECFFD01DC01C0CFF9
:1015D00013821282D7CFB0E0A0E0E1EFFAE00C94E2
:1015E00047098C01009751F4CB010E94C6098C0178
:1015F000C801CDB7DEB7E0E10C946309FC01E60F4A
:10160000F71F9C0122503109E217F30708F49DC02F
:10161000D901CD91DC911197C617D70798F0C53045
:10162000D10530F3CE0104978617970708F3C61B40
:10163000D70B2297C193D1936D937C93CF010E94D6
:10164000620AD6CF5B01AC1ABD0A4C018C0E9D1EFE
:10165000A0912802B0912902512C412CF12CE12CAF
:10166000109731F5809126029091270288159905EF
:1016700009F05CC04616570608F058C08091070173
:1016800090910801009741F48DB79EB740910B01EE
:1016900050910C01841B950BE817F90708F055C011
:1016A000F0932702E0932602F90171836083A0CFB3
:1016B0008D919C91119712966C90129713967C9035
:1016C0001397A815B90559F56C0142E0C40ED11C59
:1016D000CA14DB0420F1AC014A195B09DA01129645
:1016E000159780F06282738251834083D9016D9394
:1016F0007C93E114F10471F0D7011396FC93EE93FF
:10170000129776CF22968C0F9D1FF90191838083CB
:10171000F301EFCFF0932902E093280269CF481636
:10172000590608F42C017D01D3019ACFCB010E9408
:10173000C6097C01009749F0AE01B8010E94A80BD0
:10174000C8010E94620A870153CF10E000E050CF29
:10175000FB01DC0102C001900D9241505040D8F7CE
:101760000895FB01DC018D91019080190110D9F3DE
:10177000990B0895FB01DC0101900D920020E1F727
:061780000895F894FFCF6C
:10178600FF9CFFFFFFFFFF00002A02800000000011
:10179600007A029A01C701C7023802D6012A020D51
:1017A6000A0072656164790062746E413D0062747C
:1017B6006E423D00706F743D006563686F3A006E5F
:0617C6006F746F6E6500F8
:00000001FF
