:100000000C9462000C948A000C948A000C948A0070
:100010000C948A000C948A000C948A000C948A0038
:100020000C948A000C948A000C948A000C948A0028
:100030000C948A000C948A000C948A000C948A0018
:100040000C94E3040C948A000C9453050C942D0535
:100050000C948A000C948A000C948A000C948A00F8
:100060000C948A000C948A000000000024002700F1
:100070002A0000000000250028002B0000000008D6
:10008000000201000003040700000000000000005F
:1000900000000000230026002900040404040404D6
:1000A0000404020202020202030303030303010227
:1000B00004081020408001020408102001020408F6
:1000C0001020850511241FBECFEFD8E0DEBFCDBFC5
:1000D00011E0A0E0B1E0ECE9F3E102C005900D927F
:1000E000A233B107D9F721E0A2E3B1E001C01D922C
:1000F000AB3EB207E1F710E0C2E6D0E004C02197C2
:10010000FE010E948A07C136D107C9F70E94D205B5
:100110000C94CC090C940000CF92DF92EF92FF92E6
:10012000CF93DF93B091DF01A0E08111AB2F8091DD
:10013000E00190E0880F991FAC0140575F4FC090DD
:10014000E501D090E601E090E701F090E80130E0B1
:1001500020E0FA01C591D491E881B90190E080E0F6
:10016000EB23EA130AC02F5F3F4F6C157D058E0508
:100170009F0578F36FEF7FEFCB01DF91CF91FF9079
:10018000EF90DF90CF900895CF93DF9390E0FC0144
:10019000E255FF4F249186569F4FFC01849188239E
:1001A000D1F090E0880F991FFC01E859FF4FA5910D
:1001B000B491FC01EE58FF4FC591D491623071F4B7
:1001C0009FB7F8943C91822F809583238C93E8818C
:1001D0002E2B28839FBFDF91CF9108958FB7F8947E
:1001E000EC912E2B2C938FBFF6CF3FB7F8948091D4
:1001F000330190913401A0913501B091360126B5BB
:10020000A89B05C02F3F19F00196A11DB11D3FBF4E
:10021000BA2FA92F982F8827BC01CD01620F711D1D
:10022000811D911D42E0660F771F881F991F4A9517
:10023000D1F708958F929F92AF92BF92CF92DF92A3
:10024000EF92FF924B015C010E94F5006B017C0173
:100250000E94F5006C197D098E099F09683E734064
:1002600081059105A8F321E0821A9108A108B1083F
:1002700088EEC80E83E0D81EE11CF11C81149104A5
:10028000A104B10429F7FF90EF90DF90CF90BF90C9
:10029000AF909F908F9008958F929F92AF92BF9250
:1002A000EF92FF920F931F93CF93DF93CDB7DEB7FB
:1002B000C054D1400FB6F894DEBF0FBECDBF2FB7EC
:1002C000F8948091370190913801A0913901B09153
:1002D0003A012FBF4091E1015091E2016091E301A9
:1002E0007091E4018C019D01041B150B260B370B4B
:1002F000B901A801403D574061057105A0F4809106
:10030000E901C05CDE4F0FB6F894DEBF0FBECDBF73
:10031000DF91CF911F910F91FF90EF90BF90AF9021
:100320009F908F9008958093E1019093E201A093B4
:10033000E301B093E4011092DC011092DB01109212
:10034000DA011092D9011092D80162E08091DD01AA
:100350000E94C40061E070E080E090E00E941A0119
:1003600061E08091DD010E94C4008091DD0190E098
:10037000FC01E458FF4F2491FC01E255FF4F3491FA
:10038000FC01E656FF4FE491EE23D9F0222359F009
:10039000233009F44BC008F03EC0213009F44CC0B2
:1003A000223009F44DC0F0E0EE0FFF1FEE58FF4F72
:1003B000A591B4918FB7F894EC9130953E233C937E
:1003C0008FBF8091DE018551823008F046C08BE2FC
:1003D00091E10197F1F762E08091DD010E94C40094
:1003E0008091EA0190E08230910538F0880F991FE2
:1003F000880F991F05970197F1F7F89480E00E9404
:100400008C006F3F7F4F8F4F9F4F71F51092E90126
:10041000789480E076CF2730B1F02830D1F02430C6
:1004200009F0C1CF809180008F7D03C08091800052
:100430008F7780938000B7CF84B58F7784BDB3CF9B
:1004400084B58F7DFBCF8091B0008F778093B00013
:10045000AACF8091B0008F7DF9CF64E170E080E099
:1004600090E00E941A01B7CF81E00E948C006F3F9C
:100470007F4F8F4F9F4F51F2CE0101967C015E015D
:100480009FEBA91A9EEFB90A870180E00E948C00B9
:10049000F801608371838283938381E00E948C00E2
:1004A000F8016483758386839783085F1F4FA016C6
:1004B000B10659F7789430E020E0F7018080918010
:1004C000A280B3804481558166817781FFEF8F16CA
:1004D0009F06AF06BF0631F04F3F0FEF5007600792
:1004E000700719F41092E90194CFF90183E0F595B2
:1004F000E7958A95E1F7E852FE4F8081880F8416D0
:100500009506A606B70618F180832F5F3F4F18E0C7
:10051000E10EF11C2832310581F64091DC01209179
:10052000D8018091D901280F3327331F8091DA0138
:10053000280F311D8091DB01820F932F911D992788
:100540004817190679F681E08093E901DACE8160D7
:10055000DBCFAF92BF92CF92DF92EF92FF920F93D9
:100560001F93CF93DF936C017B018B01040F151F49
:10057000EB015E01AE18BF08C017D10759F06991B1
:10058000D601ED91FC910190F081E02DC601099515
:10059000892B79F7C501DF91CF911F910F91FF90C2
:1005A000EF90DF90CF90BF90AF900895FC01538DF6
:1005B000448D252F30E0842F90E0821B930B54173D
:1005C00010F0CF96089501970895FC01918D828DCA
:1005D000981761F0A28DAE0FBF2FB11D5D968C9163
:1005E000928D9F5F9F73928F90E008958FEF9FEFA2
:1005F0000895FC01918D828D981731F0828DE80F5E
:10060000F11D858D90E008958FEF9FEF0895FC0117
:10061000918D228D892F90E0805C9F4F821B9109E4
:100620008F73992708958BE391E00E94070321E0DF
:10063000892B09F420E0822F089580E090E0892B37
:1006400029F00E94130381110C9400000895FC010D
:10065000A48DA80FB92FB11DA35ABF4F2C91848D23
:1006600090E001968F739927848FA689B7892C9380
:10067000A089B1898C91837080648C93938D848DD3
:10068000981306C00288F389E02D80818F7D8083D6
:100690000895EF92FF920F931F93CF93DF93EC0196
:1006A00081E0888F9B8D8C8D98131AC0E889F98919
:1006B000808185FF15C09FB7F894EE89FF8960831C
:1006C000E889F98980818370806480839FBF81E09D
:1006D00090E0DF91CF911F910F91FF90EF900895DF
:1006E000F62E0B8D10E00F5F1F4F0F731127E02EBA
:1006F0008C8D8E110CC00FB607FCFACFE889F989F2
:10070000808185FFF5CFCE010E942703F1CFEB8DCD
:10071000EC0FFD2FF11DE35AFF4FF0829FB7F894C5
:100720000B8FEA89FB8980818062CFCFCF93DF93E3
:10073000EC01888D8823B9F0AA89BB89E889F989F9
:100740008C9185FD03C0808186FD0DC00FB607FC2E
:10075000F7CF8C9185FFF2CF808185FFEDCFCE0161
:100760000E942703E9CFDF91CF910895FC0101900A
:100770000020E9F73197AF01481B590BBC018BE30F
:1007800091E00C94A9028F929F92AF92BF920F9327
:100790001F93CF93DF93CDB7DEB7A1970FB6F89431
:1007A000DEBF0FBECDBF19A2423008F44AE08E0171
:1007B0000F5D1F4F842E912CB12CA12CA50194010B
:1007C0000E946807E62FB901CA01EA30F4F4E05D3F
:1007D000D801EE938D01232B242B252B79F790E064
:1007E00080E0109719F0CD010E94B603A1960FB6D4
:1007F000F894DEBF0FBECDBFDF91CF911F910F9157
:10080000BF90AF909F908F900895E95CE1CF4F9299
:100810005F926F927F928F929F92AF92BF92CF9290
:10082000DF92EF92FF920F931F93CF936B017C01A6
:10083000742EAC019B010E94C709882399F082E1C4
:1008400091E0CF911F910F91FF90EF90DF90CF90AB
:10085000BF90AF909F908F907F906F905F904F90E0
:100860000C94B60346015701E894B7F82FEF3FEF19
:100870004FE75FE7C501B4010E94C70981110DC0B0
:100880002FEF3FEF4FE75FE7C501B4010E94FD077F
:1008900018161CF486E191E0D4CF2FEF3FEF4FE71D
:1008A0005FE4C701B6010E94550918161CF48AE1DD
:1008B00091E0C7CF2FEF3FEF4FE75FECC701B601E5
:1008C0000E94FD0787FDF3CF20E030E0A901C701BA
:1008D000B6010E94FD0710E000E087FF0AC06DE24C
:1008E0008BE391E00E9449038C01F7FAF094F7F84A
:1008F000F094C0E060E070E080E09FE37C1641F09F
:1009000020E030E040E251E40E940208CF5FF6CFE1
:10091000A70196010E9491072B013C010E947408D7
:100920004B015C014AE00E94C3037C01E00EF11E12
:10093000CC23C1F1C501B4010E94A3089B01AC0105
:10094000C301B2010E9490074B015C016EE28BE390
:1009500091E00E944903E80EF91EC15018F120E011
:1009600030E040E251E4C501B4010E945A092B0174
:100970003C010E9474084B01B12CA12C4AE0C50136
:10098000B4010E94C303E80EF91EC501B4010E9420
:10099000A3089B01AC01C301B2010E9490074B0167
:1009A0005C01DBCFC701CF911F910F91FF90EF90BA
:1009B000DF90CF90BF90AF909F908F907F906F907F
:1009C0005F904F9008951F920F920FB60F921124CF
:1009D0002F933F938F939F93AF93BF938091370152
:1009E00090913801A0913901B0913A0130913201D2
:1009F00023E0230F2D3758F50196A11DB11D20933B
:100A000032018093370190933801A0933901B0935C
:100A10003A018091330190913401A0913501B09158
:100A200036010196A11DB11D8093330190933401CD
:100A3000A0933501B0933601BF91AF919F918F91F3
:100A40003F912F910F900FBE0F901F90189526E8A1
:100A5000230F0296A11DB11DD2CF1F920F920FB688
:100A60000F9211242F933F934F935F936F937F9334
:100A70008F939F93AF93BF93EF93FF938BE391E09B
:100A80000E942703FF91EF91BF91AF919F918F91AA
:100A90007F916F915F914F913F912F910F900FBE7A
:100AA0000F901F9018951F920F920FB60F9211245E
:100AB0002F938F939F93EF93FF93E0914B01F091CE
:100AC0004C018081E0915101F091520182FD1BC0E7
:100AD0009081809154018F5F8F732091550182170F
:100AE00041F0E0915401F0E0E55CFE4F958F80937A
:100AF0005401FF91EF919F918F912F910F900FBE15
:100B00000F901F9018958081F4CFEBE3F1E01382F2
:100B1000128288EE93E0A0E0B0E084839583A68300
:100B2000B78384E091E09183808385EC90E09587A2
:100B3000848784EC90E09787868780EC90E0918BA7
:100B4000808B81EC90E0938B828B82EC90E0958B94
:100B5000848B86EC90E0978B868B118E128E138E91
:100B6000148EA8EDB1E082E015968C93159786E17E
:100B700016968C931697E0EBF0E0E4911796EC93C1
:100B80001797ECE9F0E0E4911896EC93189740E899
:100B90005EE360E070E01D964D935D936D937C93F2
:100BA00050970895789484B5826084BD84B581603F
:100BB00084BD85B5826085BD85B5816085BD809128
:100BC0006E00816080936E001092810080918100A0
:100BD0008260809381008091810081608093810098
:100BE000809180008160809380008091B10084605A
:100BF0008093B1008091B00081608093B0008091BB
:100C00007A00846080937A0080917A008260809379
:100C10007A0080917A00816080937A0080917A00D6
:100C2000806880937A001092C100E0914B01F091AE
:100C30004C0182E08083E0914701F09148011082ED
:100C4000E0914901F0914A0180E1808310925301C3
:100C5000E0914F01F091500186E08083E0914D01D9
:100C6000F0914E01808180618083E0914D01F0918F
:100C70004E01808188608083E0914D01F0914E01AA
:100C8000808180688083E0914D01F0914E018081E8
:100C90008F7D808362E08091DD010E94C4002FB7C8
:100CA000F8948091370190913801A0913901B09169
:100CB0003A012FBF805D9740A109B1098093E101FE
:100CC0009093E201A093E301B093E40187E3809362
:100CD000EA01C0E0D0E00E944C01882341F08091FD
:100CE000DE018C3009F463C048F48B3001F1C12C73
:100CF000D12C90ECE92E9FE7F92E43C0855182302C
:100D0000B0F71091DA01612F70E0762F6627662721
:100D10007F778091DB01682B90E080E00E94A30840
:100D20002DEC3CEC4CEC5DE30E945A095CC06091F8
:100D3000DA0170E090E080E00E94A3086B017C0182
:100D40001091DB0117FF0AC0AC019B0160E070E06D
:100D500080E89FEB0E9490076B017C011F70612F60
:100D600070E090E080E00E94A5082DEC3CEC4CEC9B
:100D70005DE30E945A09A70196010E9491076B0149
:100D80007C010E944C01882309F464C08091DE013B
:100D90008B3030F08D3080F18551823008F473C093
:100DA000812C912C80ECA82E8FE7B82E43C0109197
:100DB000DA01612F70E090E080E00E94A3086B01EF
:100DC0007C016091DB016F7070E090E080E00E9438
:100DD000A5082DEC3CEC4CEC5DE30E945A09A70100
:100DE00096010E9491076B017C0117FFCACFF7FAA9
:100DF000F094F7F8F094C5CF6091D90170E090E0DD
:100E000080E00E94A5082DEC3CEC4CEC5DE30E94D8
:100E10005A094B015C016091D80170E090E080E0DC
:100E20000E94A5089B01AC01C501B4010E94910775
:100E30004B015C01A7019601C701B6010E94C709D9
:100E4000811108C0A5019401C501B4010E94C70920
:100E5000882359F18EE191E00E94B60387E291E088
:100E60000E94B60360ED77E080E090E00E941A01F6
:100E7000209709F430CF0E941303882309F42BCF65
:100E80000E94000028CF6091D8017091D901762787
:100E90006727762790E080E00E94A3082DEC3CECC9
:100EA0004CEC5DE30E945A09C3CF8AE291E00E94B4
:100EB000B60341E0C701B6010E9407048DE291E04C
:100EC0000E94B60341E0C501B4010E940704C6CFE9
:100ED000A1E21A2EAA1BBB1BFD010DC0AA1FBB1F3E
:100EE000EE1FFF1FA217B307E407F50720F0A21BB0
:100EF000B30BE40BF50B661F771F881F991F1A941D
:100F000069F760957095809590959B01AC01BD0146
:100F1000CF010895EE0FFF1F0590F491E02D099485
:100F20005058BB27AA270E94A8070C941B090E94AF
:100F30000D0938F00E94140920F039F49F3F19F48C
:100F400026F40C940A090EF4E095E7FB0C940409CE
:100F5000E92F0E942C0958F3BA1762077307840718
:100F6000950720F079F4A6F50C944E090EF4E0955F
:100F70000B2EBA2FA02D0B01B90190010C01CA0153
:100F8000A0011124FF27591B99F0593F50F4503EFE
:100F900068F11A16F040A22F232F342F4427585FF0
:100FA000F3CF469537952795A795F0405395C9F708
:100FB0007EF41F16BA0B620B730B840BBAF09150C0
:100FC000A1F0FF0FBB1F661F771F881FC2F70EC05F
:100FD000BA0F621F731F841F48F487957795679532
:100FE000B795F7959E3F08F0B0CF9395880F08F01E
:100FF0009927EE0F9795879508950E94E00808F4C9
:1010000081E008950E9416080C941B090E9414099F
:1010100058F00E940D0940F029F45F3F29F00C942C
:10102000040951110C944F090C940A090E942C09CF
:1010300068F39923B1F3552391F3951B550BBB2707
:10104000AA2762177307840738F09F5F5F4F220F4C
:10105000331F441FAA1FA9F335D00E2E3AF0E0E843
:1010600032D091505040E695001CCAF72BD0FE2F8D
:1010700029D0660F771F881FBB1F26173707480721
:10108000AB07B0E809F0BB0B802DBF01FF279358D9
:101090005F4F3AF09E3F510578F00C9404090C9490
:1010A0004F095F3FE4F3983ED4F3869577956795B3
:1010B000B795F7959F5FC9F7880F911D969587950E
:1010C00097F90895E1E0660F771F881FBB1F62172D
:1010D00073078407BA0720F0621B730B840BBA0BEB
:1010E000EE1F88F7E09508950E94340988F09F5715
:1010F00098F0B92F9927B751B0F0E1F0660F771F3C
:10110000881F991F1AF0BA95C9F714C0B13091F031
:101110000E944E09B1E008950C944E09672F782F74
:101120008827B85F39F0B93FCCF3869577956795F6
:10113000B395D9F73EF490958095709561957F4F62
:101140008F4F9F4F0895E89409C097FB3EF4909508
:101150008095709561957F4F8F4F9F4F9923A9F090
:10116000F92F96E9BB279395F6958795779567951F
:10117000B795F111F8CFFAF4BB0F11F460FF1BC063
:101180006F5F7F4F8F4F9F4F16C0882311F096E9F6
:1011900011C0772321F09EE8872F762F05C06623A4
:1011A00071F096E8862F70E060E02AF09A95660F5D
:1011B000771F881FDAF7880F9695879597F9089516
:1011C000990F0008550FAA0BE0E8FEEF1616170658
:1011D000E807F907C0F012161306E407F50798F0C0
:1011E000621B730B840B950B39F40A2661F0232BD9
:1011F000242B252B21F408950A2609F4A140A69555
:101200008FEF811D811D089597F99F6780E870E039
:1012100060E008959FEF80EC089500240A9416166C
:10122000170618060906089500240A9412161306D4
:10123000140605060895092E0394000C11F4882362
:1012400052F0BB0F40F4BF2B11F460FF04C06F5F7E
:101250007F4F8F4F9F4F089557FD9058440F551F54
:1012600059F05F3F71F04795880F97FB991F61F028
:101270009F3F79F087950895121613061406551F9F
:10128000F2CF4695F1DF08C0161617061806991F0B
:10129000F1CF86957105610508940895E894BB2700
:1012A00066277727CB0197F908950E94E00808F494
:1012B0008FEF08950E946D090C941B090E940D097F
:1012C00038F00E94140920F0952311F00C940409C1
:1012D0000C940A0911240C944F090E942C0970F3F4
:1012E000959FC1F3950F50E0551F629FF001729FCB
:1012F000BB27F00DB11D639FAA27F00DB11DAA1FDA
:10130000649F6627B00DA11D661F829F2227B00D26
:10131000A11D621F739FB00DA11D621F839FA00DB1
:10132000611D221F749F3327A00D611D231F849F01
:10133000600D211D822F762F6A2F11249F57504058
:101340009AF0F1F088234AF0EE0FFF1FBB1F661FD3
:10135000771F881F91505040A9F79E3F510580F09C
:101360000C9404090C944F095F3FE4F3983ED4F3C6
:10137000869577956795B795F795E7959F5FC1F740
:10138000FE2B880F911D9695879597F908950E94D9
:0C139000E008880B990B0895F894FFCF3B
:10139C00000000004903A902D60296030703E502E8
:1013AC00F9026E616E00696E66006F7666006468A5
:1013BC0074206661696C000D0A00543D0020483DA4
:0213CC0000001F
:00000001FF
