:100000000C9462000C948A000C948A000C948A0070
:100010000C948A000C948A000C948A000C948A0038
:100020000C948A000C948A000C948A000C948A0028
:100030000C948A000C948A000C948A000C948A0018
:100040000C9400030C948A000C9470030C944A03E3
:100050000C948A000C948A000C948A000C948A00F8
:100060000C948A000C948A000000000024002700F1
:100070002A0000000000250028002B0000000000DE
:1000800023002600290004040404040404040202DA
:100090000202020203030303030301020408102007
:1000A0004080010204081020010204081020000012
:1000B0000008000201000003040700000000000027
:1000C0000000A20311241FBECFEFD8E0DEBFCDBFDA
:1000D00011E0A0E0B1E0E4E2FCE002C005900D9286
:1000E000A234B107D9F722E0A2E4B1E001C01D9229
:1000F000A735B207E1F710E0C2E6D0E004C02197CF
:10010000FE010E940A06C136D107C9F70E942F04DA
:100110000C9410060C94000096E0899FD0011124E5
:10012000A851BE4F90967C936E935F9791E0919605
:100130009C939197E0915502F09156029091540250
:10014000992339F0309751F0811108C08091040251
:100150000994309719F05C968C91FACF0895CF925C
:10016000DF92EF92FF920F931F9396E0899FF00129
:100170001124E851FE4F11A2278D30A12130310505
:1001800051F178F02230310509F451C023303105A6
:1001900009F452C01F910F91FF90EF90DF90CF9024
:1001A00008956623B9F361E070E00E948C002FB7D8
:1001B000F8948091470190914801A0914901B09134
:1001C0004A012FBF8093400290934102A0934202C4
:1001D000B0934302DFCF9FB7F894C0904701D0900F
:1001E0004801E0904901F0904A019FBF0091400210
:1001F000109141022091420230914302C01AD10A6B
:10020000E20AF30A009152021091530230E020E01A
:100210000C151D052E053F0550F462E070E01F919E
:100220000F91FF90EF90DF90CF900C948C006111B4
:10023000B1CF63E070E0F3CF70E060E0F0CF8330E7
:1002400081F028F4813099F08230A9F00895873048
:10025000A9F08830C9F08430B1F4809180008F7D9E
:1002600003C0809180008F7780938000089584B5CB
:100270008F7784BD089584B58F7DFBCF8091B000CA
:100280008F778093B00008958091B0008F7DF9CF73
:10029000CF93DF93282F30E0F901E255FF4F84918F
:1002A000F901E656FF4FD491F901EA57FF4FC49187
:1002B000CC23A1F081110E941F01EC2FF0E0EE0F82
:1002C000FF1FE458FF4FA591B491EC91ED2381E01D
:1002D00090E009F480E0DF91CF91089580E090E014
:1002E000FACF1F93CF93DF93282F30E0F901E25527
:1002F000FF4F8491F901E656FF4FD491F901EA5777
:10030000FF4FC491CC23A9F0162F81110E941F0129
:10031000EC2FF0E0EE0FFF1FEE58FF4FA591B491C8
:100320008FB7F894EC91111108C0D095DE23DC93BF
:100330008FBFDF91CF911F910895DE2BF8CFCF9320
:10034000DF9390E0FC01E656FF4F24918A579F4FC0
:10035000FC0184918823C9F090E0880F991FFC016B
:10036000E859FF4FA591B491FC01EE58FF4FC5919C
:10037000D49161110DC09FB7F8948C912095822380
:100380008C938881282328839FBFDF91CF91089584
:10039000623051F49FB7F8943C91822F809583236B
:1003A0008C93E8812E2BEFCF8FB7F894EC912E2B06
:1003B0002C938FBFEACF862F642F0C949F01862F3A
:1003C000642F0C947101862F0C944801AF92BF9258
:1003D000CF92DF92EF92FF920F931F93CF93DF9311
:1003E0006C017B018B01040F151FEB015E01AE1840
:1003F000BF08C017D10759F06991D601ED91FC9162
:100400000190F081E02DC6010995892B79F7C5018E
:10041000DF91CF911F910F91FF90EF90DF90CF90E0
:10042000BF90AF900895FC01538D448D252F30E08F
:10043000842F90E0821B930B541710F0CF960895F1
:1004400001970895FC01918D828D981761F0A28D1E
:10045000AE0FBF2FB11D5D968C91928D9F5F9F73E4
:10046000928F90E008958FEF9FEF0895FC01918D9A
:10047000828D981731F0828DE80FF11D858D90E007
:1004800008958FEF9FEF0895FC01918D228D892FA4
:1004900090E0805C9F4F821B91098F73992708958C
:1004A0008BE491E00E94440221E0892B09F420E0D2
:1004B000822F089580E090E0892B29F00E9450025D
:1004C00081110C9400000895FC01A48DA80FB92F90
:1004D000B11DA35ABF4F2C91848D90E001968F736C
:1004E0009927848FA689B7892C93A089B1898C918B
:1004F000837080648C93938D848D981306C00288DA
:10050000F389E02D80818F7D80830895EF92FF92A3
:100510000F931F93CF93DF93EC0181E0888F9B8D26
:100520008C8D98131AC0E889F989808185FF15C0E0
:100530009FB7F894EE89FF896083E889F989808103
:100540008370806480839FBF81E090E0DF91CF91D2
:100550001F910F91FF90EF900895F62E0B8D10E0F4
:100560000F5F1F4F0F731127E02E8C8D8E110CC063
:100570000FB607FCFACFE889F989808185FFF5CFAE
:10058000CE010E946402F1CFEB8DEC0FFD2FF11D27
:10059000E35AFF4FF0829FB7F8940B8FEA89FB89EB
:1005A00080818062CFCFCF93DF93EC01888D882349
:1005B000B9F0AA89BB89E889F9898C9185FD03C0C6
:1005C000808186FD0DC00FB607FCF7CF8C9185FFAB
:1005D000F2CF808185FFEDCFCE010E946402E9CF8A
:1005E000DF91CF910895FC0101900020E9F7319748
:1005F000AF01481B590BBC018BE491E00C94E60160
:100600001F920F920FB60F9211242F933F938F9347
:100610009F93AF93BF938091470190914801A09120
:100620004901B0914A013091460123E0230F2D3753
:1006300058F50196A11DB11D2093460180934701F5
:1006400090934801A0934901B0934A0180914201DF
:1006500090914301A0914401B09145010196A11DE3
:10066000B11D8093420190934301A0934401B09344
:100670004501BF91AF919F918F913F912F910F9025
:100680000FBE0F901F90189526E8230F0296A11D0C
:10069000B11DD2CF1F920F920FB60F9211242F933C
:1006A0003F934F935F936F937F938F939F93AF93FA
:1006B000BF93EF93FF938BE491E00E946402FF915C
:1006C000EF91BF91AF919F918F917F916F915F91CA
:1006D0004F913F912F910F900FBE0F901F90189543
:1006E0001F920F920FB60F9211242F938F939F9307
:1006F000EF93FF93E0915B01F0915C018081E091C9
:100700006101F091620182FD1BC0908180916401C2
:100710008F5F8F7320916501821741F0E091640132
:10072000F0E0E55BFE4F958F80936401FF91EF91C0
:100730009F918F912F910F900FBE0F901F90189542
:100740008081F4CF10924E0110924D0188EE93E01B
:10075000A0E0B0E080934F0190935001A09351012D
:10076000B09352018CE191E090934C0180934B0146
:1007700085EC90E0909358018093570184EC90E0D1
:1007800090935A018093590180EC90E090935C0122
:1007900080935B0181EC90E090935E0180935D011A
:1007A00082EC90E09093600180935F0186EC90E092
:1007B000909362018093610110926401109265012F
:1007C00010926601109267011092EA011092EE01F8
:1007D0001092ED011092EF018EE291E09093E90109
:1007E0008093E801E4E0F2E0108214821382158223
:1007F000369682E0E034F807B9F784E091E0909310
:100800004B0280934A0280E091E090934D028093E6
:100810004C0284E080934E0280934F0288E091E086
:1008200090934902809348028AE090E090935102AD
:100830008093500284EF91E0909353028093520290
:1008400010925602109255021092440210924502E4
:100850001092460210924702109254020895789422
:1008600084B5826084BD84B5816084BD85B58260B5
:1008700085BD85B5816085BD80916E008160809366
:100880006E001092810080918100826080938100CF
:1008900080918100816080938100809180008160DF
:1008A000809380008091B10084608093B10080913A
:1008B000B00081608093B00080917A008460809362
:1008C0007A0080917A00826080937A0080917A0029
:1008D000816080937A0080917A00806880937A00AA
:1008E0001092C100E0915B01F0915C0182E0808395
:1008F000E0915701F09158011082E0915901F09177
:100900005A0180E1808310926301E0915F01F091D0
:10091000600186E08083E0915D01F0915E0180815D
:1009200080618083E0915D01F0915E01808188604B
:100930008083E0915D01F0915E0180818068808319
:10094000E0915D01F0915E0180818F7D808384E381
:1009500091E00E94F30289E391E00E94F302812C6E
:10096000912C5401839422242A94322C50E0652E39
:1009700050E0752E51E0509354028FB7F894409197
:100980004701509148016091490170914A018FBF20
:100990008091440290914502A0914602B091470295
:1009A000481B590B6A0B7B0B8091500290915102AE
:1009B000B0E0A0E084179507A607B70708F017C1B5
:1009C000C0E080914E02C81760F4E0914A02F091B5
:1009D0004B02EC0FF11D62E080810E949F01CF5F0E
:1009E000F0CF512C80914F02581608F05FC0052DB2
:1009F00010E0E0914C02F0914D02E00FF11F61E038
:100A000080810E949F01E0914C02F0914D02E00F25
:100A1000F11F60E080810E947101D501C401052CA5
:100A200004C0880F991FAA1FBB1F0A94D2F76C013C
:100A30007C01E094F094412C80914E024816F8F429
:100A4000C42DD0E0E0914A02F0914B02EC0FFD1F63
:100A500080810E9448012496CC0FDD1FC851DE4FD3
:100A6000892B41F4888199818C299D2999838883D8
:100A70004394E2CF888199818E219F21F7CFE09125
:100A80004C02F0914D02E00FF11F61E080810E9465
:100A9000710180914C0290914D02080F191F60E086
:100AA000F80180810E949F0153949CCFC8EED1E051
:100AB000FE01878D90A1892B21F4148E368E258E10
:100AC00011A2369652E0E432F50799F710E08091D2
:100AD0004E02181708F053C000E0E12EF12CEE0C86
:100AE000FF1CC70180519E4F7C0120914F020217CD
:100AF00008F043C0F70160817181002E02C0769535
:100B000067950A94E2F7129F90011124200F311D7E
:100B1000E8EEF1E080E0458D568D2417350709F4A5
:100B200077C08F5F36968A30B1F760FF24C0E8EE59
:100B3000F1E090E080E0448D411118C0E09148025E
:100B4000F0914902E20FF31F408156E0589FF001F7
:100B5000599FF00D1124E851FE4F448F368F258F99
:100B600010A2178E61E00E94AF0005C00196369674
:100B70008A30910501F70F5FB8CF1F5FA8CF80E0E3
:100B800099A19111892F269692E0C432D907C1F715
:100B90009FB7F894409147015091480160914901F5
:100BA00070914A019FBF4093440250934502609365
:100BB0004602709347028823D1F08091090288236E
:100BC000B1F08091070290910802019781F4C091E1
:100BD0000402C1110FC06114710409F4CBCE0E944C
:100BE0005002882309F4C6CE0E940000C3CE1092A2
:100BF0005402F1CF8CE391E00E94F3026C2F8BE45E
:100C000091E00E94860289E391E00E94F302E3CF23
:100C10006170A9CFEE0FFF1F0590F491E02D0994AC
:040C2000F894FFCF76
:100C240005040302090807063132334134353642DC
:100C3400373839432A302344000000008602E60195
:100C44001302D30244022202360200000000DB0138
:100C5400DF01E3016B657973000D0A006B65793D73
:020C640000008E
:00000001FF
