:100000000C9458000C9480000C9480000C94800098
:100010000C9480000C9480000C9480000C94800060
:100020000C9480000C9480000C9480000C94800050
:100030000C9480000C9480000C9480000C94800040
:100040000C94E9040C9480000C9480000C948000C3
:100050000C9480000C9480000C9480000C94800020
:100060000C94CA030C9480000000000025002800B6
:100070002B00040404040404040402020202020229
:10008000030303030303010204081020408001025C
:1000900004081020010204081020000000080002DB
:1000A0000100000304070000000000000000330509
:1000B00011241FBECFEFD8E0DEBFCDBF11E0A0E01E
:1000C000B1E0E4ECFCE002C005900D92AA34B10767
:1000D000D9F722E0AAE4B1E001C01D92A632B2072E
:1000E000E1F710E0C8E5D0E004C02197FE010E94CE
:1000F0005A06C735D107C9F70E9454050C9460060B
:100100000C94000090E0FC01E656FF4F2491FC01A6
:10011000EA57FF4F3491FC01EE58FF4FE491EE2374
:10012000C9F0222339F0233001F1A8F4213019F16C
:10013000223029F1F0E0EE0FFF1FE859FF4FA591A3
:10014000B4918FB7F894EC91611126C030953E239D
:100150003C938FBF08952730A9F02830C9F0243090
:1001600049F7809180008F7D03C0809180008F7758
:1001700080938000DFCF84B58F7784BDDBCF84B5DB
:100180008F7DFBCF8091B0008F778093B000D2CF6E
:100190008091B0008F7DF9CF3E2BDACF2091C10145
:1001A000260F3327331F21323105ECF42091E7016C
:1001B000FC0190E080E0243069F082E00895A09195
:1001C000C1012191AC0141565E4FA40FB52FB11D65
:1001D0002C930196861798F38091C101680F609364
:1001E000C10180E0089581E008951092E70181E067
:1001F0008093E9011092E80161E082E10E948200AF
:1002000061E083E10E948200E9EBF0E080818E7F73
:10021000808380818D7F808388E48093B80085E42B
:100220008093BC000895CF93DF9391E090939E015B
:100230008823B9F0C091B800D091BA008091BC0079
:100240008A7B8093BC0060E082E10E94820060E0D3
:1002500083E10E9482000E94F500D093BA00C0930F
:10026000B800DF91CF910895089508950895E09121
:10027000960180919501E81730F4F0E0EB58FE4FBD
:10028000808190E008958FEF9FEF089590919601FF
:10029000809195012FEF3FEF981748F4E92FF0E098
:1002A000EB58FE4F208130E09F5F90939601C9018B
:1002B00008958091950190919601891B990B08955D
:1002C000CF92DF92EF92FF920F931F93CF93DF9322
:1002D0007C01CB018A0120917401222389F0EB017A
:1002E0006B01C40ED51ECC15DD0569F06991D701EF
:1002F000ED91FC910190F081E02DC7010995F3CFBC
:10030000642F0E94CE00C801DF91CF911F910F9101
:10031000FF90EF90DF90CF900895CF93DF931F92DF
:10032000CDB7DEB76983209174012223F9F02091C3
:100330009701203258F021E030E0FC013383228322
:1003400090E080E00F90DF91CF9108958091980127
:10035000E82FF0E0EC5AFE4F998190838F5F8093F5
:1003600098018093970181E090E0ECCF61E0CE01AD
:1003700001960E94CE00F7CF3FB7F89480915001CC
:1003800090915101A0915201B091530126B5A89BC3
:1003900005C02F3F19F00196A11DB11D3FBFBA2F17
:1003A000A92F982F8827BC01CD01620F711D811DD7
:1003B000911D42E0660F771F881F991F4A95D1F75C
:1003C00008958F929F92AF92BF92CF92DF92EF9259
:1003D000FF924B015C010E94BC016B017C010E94F9
:1003E000BC016C197D098E099F09683E7340810527
:1003F0009105A8F321E0821A9108A108B10888EEBE
:10040000C80E83E0D81EE11CF11C81149104A104E4
:10041000B10429F7FF90EF90DF90CF90BF90AF909D
:100420009F908F900895AF92BF92CF92DF92EF92FC
:10043000FF920F931F93CF93DF936C017B018B018E
:10044000040F151FEB015E01AE18BF08C017D107DE
:1004500059F06991D601ED91FC910190F081E02D68
:10046000C6010995892B79F7C501DF91CF911F91BD
:100470000F91FF90EF90DF90CF90BF90AF900895D5
:10048000CF92DF92EF92FF920F931F93CF93DF9360
:10049000FC01C48121E020937401C0934A011092B1
:1004A0009801109297018485682B8DE092E00E945C
:1004B0008D01D0919701D13208F092C00E94BC0109
:1004C0006B017C018091E701811165C082E080931E
:1004D000E70181E08093E9018FEF8093E6011092BC
:1004E0000B02D0930A02A4E5B1E0EAEEF1E080E06D
:1004F000D81385C010920C0280910C02CC0FC82B2F
:10050000C0930C028091E801813009F07CC0109208
:10051000E8010E94BC016B017C0180910C02809378
:10052000BB0080919A0190919B01A0919C01B09198
:100530009D01892B8A2B8B2B99F00E94BC01009185
:100540009A0110919B0120919C0130919D016C19A1
:100550007D098E099F090617170728073907E0F15B
:100560008091BC0083FDD9CF85EC8093BC000E94B4
:10057000BC016B017C018091E701823009F445C028
:100580008091E6018F3F61F18091E601803241F177
:100590008091E60125C080919A0190919B01A091E4
:1005A0009C01B0919D01892B8A2B8B2B09F48ACF5A
:1005B0000E94BC0100919A0110919B0120919C0125
:1005C00030919D016C197D098E099F090617170747
:1005D0002807390708F076CF809199010E9413010E
:1005E000109298011092970110927401DF91CF91AF
:1005F0001F910F91FF90EF90DF90CF9008959D9104
:1006000091938F5F75CF85EEB0CF80919A019091D5
:100610009B01A0919C01B0919D01892B8A2B8B2B72
:1006200009F4A9CF0E94BC0100919A0110919B018D
:1006300020919C0130919D016C197D098E099F09C3
:10064000061717072807390708F095CFC5CF089573
:1006500090E080E0089585ED8093BC0080919A0140
:1006600090919B01A0919C01B0919D010796A11DC5
:10067000B11D23E0B695A795979587952A95D1F753
:100680002091BC0024FD03C01092E7010895409121
:100690009A0150919B0160919C0170919D01452BA5
:1006A000462B472B69F30097A105B10541F02AE2DB
:1006B0002A95F1F700C00197A109B109E1CF809116
:1006C00099010C9413010F931F93CF938C01C62FA4
:1006D0000E9440026C2F6460C8010E9440026C2F8F
:1006E0006B7FC8010E94400283EC90E00197F1F714
:1006F000CF911F910F9108950F931F93CF93DF9385
:100700008C01D62FC42F607F642B0E94630380E18D
:10071000D89FB00111246C2BC801DF91CF911F919C
:100720000F910C946303CF93DF93CDB7DEB7289777
:100730000FB6F894DEBF0FBECDBF98E0E8E0F1E061
:10074000DE01119601900D929A95E1F790912102A8
:10075000981708F48FEF90E0880F991F21E030E0A0
:100760002C0F3D1F820F931FFC016081606840E0E9
:1007700089E192E028960FB6F894DEBF0FBECDBF98
:10078000DF91CF910C947C0341E00E947C0381E0D7
:1007900090E008951F920F920FB60F9211242F939D
:1007A0003F934F935F936F937F938F939F93AF93F9
:1007B000BF93EF93FF938091B900887F803609F44F
:1007C0004AC0F0F5883209F4A7C018F5803109F461
:1007D0009BC0B8F4882309F4F9C0883009F494C0A8
:1007E000FF91EF91BF91AF919F918F917F916F9109
:1007F0005F914F913F912F910F900FBE0F901F90DF
:100800001895883109F488C0803251F78093E60149
:1008100014C0803409F49DC040F48033B9F38833A8
:10082000F9F68093E60185ECB0C0803509F485C007
:10083000883509F496C0883499F60E942B03D0CFEE
:10084000883909F48CC038F5883729F050F4883697
:1008500011F0803729F683E08093E7011092E501DB
:1008600057C0883809F47BC0803919F0803809F006
:10087000B7CF8091E501803208F071C0E091E501C9
:1008800081E08E0F8093E5018091BB00F0E0EB5397
:10089000FE4F80833DC0803B39F0E0F4803A09F49C
:1008A00079C0883A09F09CCF84E08093E7011092E8
:1008B000C2011092C101E091BF01F091C001099500
:1008C0008091C10181110FC081E08093C10110921C
:1008D0009F0109C0803C09F4A6CF883C09F4A3CF4E
:1008E000883B09F07DCFE091C20181E08E0F8093BB
:1008F000C201F0E0E156FE4F80818093BB009091F1
:10090000C2018091C10129C080910C028093BB007B
:1009100085EC8093BC0064CF90910B0280910A0219
:10092000981758F5E0910B0281E08E0F80930B022F
:10093000F0E0E651FE4F8081E9CFE0910B0281E0CB
:100940008E0F80930B028091BB00F0E0E651FE4FCA
:10095000808390910B0280910A029817C8F285E873
:10096000D8CFE0910B0281E08E0F80930B02809133
:10097000BB00F0E0E651FE4F80838091E9018111D8
:100980005CCF81E08093E80184EA8093BC00109200
:10099000E70126CF85EC8093BC001092E70180919F
:1009A000E501803230F4E091E501F0E0EB53FE4FD9
:1009B00010826091E50170E0E091C301F091C40103
:1009C00085EC91E009951092E5010ACF1092E601BD
:1009D00034CF1F920F920FB60F9211242F933F9393
:1009E0008F939F93AF93BF9380914C0190914D0152
:1009F000A0914E01B0914F0130914B0123E0230FA4
:100A00002D3758F50196A11DB11D20934B01809300
:100A10004C0190934D01A0934E01B0934F018091F2
:100A2000500190915101A0915201B0915301019652
:100A3000A11DB11D8093500190935101A0935201CB
:100A4000B0935301BF91AF919F918F913F912F919F
:100A50000F900FBE0F901F90189526E8230F029657
:100A6000A11DB11DD2CFEDE0F2E01382128288EE1B
:100A700093E0A0E0B0E084839583A683B78384E10C
:100A800091E091838083E9E1F2E01382128286E2B1
:100A900091E091838083118687E2848380E182875D
:100AA00082E0838714860895789484B5826084BD3B
:100AB00084B5816084BD85B5826085BD85B5816062
:100AC00085BD80916E00816080936E0010928100E0
:100AD000809181008260809381008091810081609B
:100AE000809381008091800081608093800080915C
:100AF000B10084608093B1008091B00081608093E8
:100B0000B00080917A00846080937A0080917A00AE
:100B1000826080937A0080917A00816080937A006D
:100B200080917A00806880937A001092C1001092C0
:100B300096011092950110929801109297010E94CF
:100B4000F50084E391E09093C0018093BF0185E3B9
:100B500091E09093C4018093C30110921E02809192
:100B60002402823018F098E090931E0280932102B4
:100B700062E370E080E090E00E94E1016091250274
:100B800089E192E00E94400268EE73E080E090E02C
:100B90000E94E10160E389E192E00E946303CBE4FB
:100BA000D6E4CE010197F1F760E389E192E00E947B
:100BB00063032197F1F760E389E192E00E94630308
:100BC00083E592E00197F1F760E289E192E00E940B
:100BD000630360911E02606240E089E192E00E943E
:100BE0007C0384E080931F0240E06CE089E192E0A6
:100BF0000E947C0340E061E089E192E00E947C0376
:100C00008BE39FE10197F1F780912202882319F08D
:100C100080E00E94930382E08093200240E066E03F
:100C200089E192E00E947C0340E062E089E192E089
:100C30000E947C038BE39FE10197F1F788E08093AA
:100C4000250260E089E192E00E94400240E060E419
:100C500089E192E00E947C03C0E0D1E008E011E06D
:100C6000699189E192E00E94C4030C171D07C1F746
:100C700080E00E9493034DE050E06EE271E089E174
:100C800092E00E94130281E00E94930360E089E1F8
:100C900092E00E94C4034CE050E06CE371E089E113
:100CA00092E00E941302C0E0D0E02097F1F30E948E
:100CB0000000FBCFEE0FFF1F0590F491E02D09948B
:040CC000F894FFCFD6
:100CC400000A1F1F0E04000000004000140054001E
:100CD400000000008D01600128033601590146011E
:100CE400370100000000C4031302280327034865EA
:100CF4006C6C6F2C20576F6B77692100204A6F69E9
:0A0D04006E74204167656E740000F4
:00000001FF
