:100000000C944E010C947F010C947F010C947F01A1
:100010000C947F010C947F010C947F010C947F0160
:100020000C947F010C947F010C947F010C947F0150
:100030000C947F010C947F010C947F010C947F0140
:100040000C947F010C947F010C947F010C947F0130
:100050000C947F010C947F010C947F010C941C087C
:100060000C947F010C9490080C9466080C947F010A
:100070000C947F010C947F010C947F010C947F0100
:100080000C947F010C947F010C947F010C947F01F0
:100090000C947F010C947F010C947F010C94F80662
:1000A0000C947F010C947F010C947F010C947F01D0
:1000B0000C947F010C947F010C947F010C947F01C0
:1000C0000C947F010C947F010C947F010C947F01B0
:1000D0000C947F010C947F010C947F010C947F01A0
:1000E0000C947F010C94F8010C9413040C94D0022E
:1000F0000C94FA010C94A3020C94D4020C947C048A
:100100000C94710C0C941C020C94E2020C943604B6
:100110000C94D8020C94A7020C9409020C94DE02F1
:100120000C94C6020C94BC020C94B8020C94DD0230
:100130000C949D020C9422040C9450020C946506BD
:100140000C94AB020C94F9010C94C9040C94C202F7
:100150000C9423020C94F7010C9402060C94B20246
:100160000C94AF020C94C6080C94E6030C940106A0
:100170000C9444040C94CA020000200023002600C2
:1001800029002C002F0032000001000003010601AD
:10019000090100002100240027002A002D00300062
:1001A000330001010000040107010A0100000A0BED
:1001B00002090C0D0E0807030401000000000000F6
:1001C000000000000000000000000000000000002F
:1001D00000000000000000001211100000000000EC
:1001E000000000000000000000000000000000000F
:1001F000000001021020200808102040102040803C
:1002000002010201080402010102040810204080DA
:100210008040201008040201800402018040201068
:1002200008040201080402010102040810204080B1
:100230000102040810204080000022002500280050
:100240002B002E00310034000201000005010801DE
:100250000B0105050505070508080808020202024A
:100260000A0A080804040404010101010101010152
:100270000303030303030303040707070C0C0C0C1D
:100280000C0C0C0C02020202060606060606060606
:100290000B0B0B0B0B0B0B0BC608710C11241FBEA9
:1002A000CFEFD1E2DEBFCDBF00E00CBF12E0A0E097
:1002B000B2E0E4ECFBE100E00BBF02C007900D925E
:1002C000AC37B107D9F724E0ACE7B2E001C01D922A
:1002D000AF30B207E1F711E0CDE4D1E000E006C0B5
:1002E00021970109802FFE010E94A30CCC34D10775
:1002F00080E00807A9F70E9491090C94D00D0C9496
:100300000000CF92DF92FF920F931F938B01222761
:100310003327A42FF090F003FF2071F0EF2DF0E0D1
:10032000E09FD001E19FB00DF09FB00D11240B2F85
:10033000F49E60011124AD2DE091F6032091F103AC
:100340003091F2034091F303E4131FC0AC01440F5A
:10035000551F840F951F820F931FE091F303E80F41
:10036000F92FF11D0083E091F403E80FF92FF11D3F
:1003700010822091F503820F911DFC01A0831F9133
:100380000F91FF90DF90CF900895880F991F880FED
:10039000991F820F931FE80FF92FF11D1082DDCFF7
:1003A0002091F302260F3327331F21323105ECF45D
:1003B00020911903FC0190E080E0243069F082E094
:1003C0000895A091F3022191AC014F525D4FA40F0B
:1003D000B52FB11D2C930196861798F38091F302E7
:1003E000680F6093F30280E0089581E00895089516
:1003F00008950895E091C8028091C702E81730F48B
:10040000F0E0E955FD4F808190E008958FEF9FEF78
:1004100008959091C8028091C7022FEF3FEF98177F
:1004200048F4E92FF0E0E955FD4F208130E09F5F6F
:100430009093C802C90108958091C7029091C802A3
:10044000891B990B0895CF92DF92EF92FF920F9341
:100450001F93CF93DF937C01CB018A012091A602E9
:10046000222389F0EB016B01C40ED51ECC15DD05EE
:1004700069F06991D701ED91FC910190F081E02D37
:10048000C7011995F3CF642F0E94D001C801DF91F5
:10049000CF911F910F91FF90EF90DF90CF90089533
:1004A000CF93DF931F92CDB7DEB769832091A60269
:1004B0002223F9F02091C902203258F021E030E0E7
:1004C000FC013383228390E080E00F90DF91CF9195
:1004D00008958091CA02E82FF0E0EA57FD4F998114
:1004E00090838F5F8093CA028093C90281E090E07D
:1004F000ECCF61E0CE0101960E94D001F7CF815090
:10050000823108F05AC0E82FF0E08827E557FD4F08
:100510008F4F0C94A30CAB02AF029D02A302A70263
:10052000DD02B202B802BC02C202C602CA02D00296
:10053000D402DD02D802DE02E202809180008F77D1
:10054000809380000895809180008F7DF9CF809105
:100550008000877FF5CF84B58F7784BD089584B5FB
:100560008F7DFBCF8091B0008F778093B00008958E
:100570008091B0008F7DF9CF809190008F7780932C
:1005800090000895809190008F7DF9CF8091900028
:10059000877FF5CF8091A0008F778093A00008958A
:1005A0008091A0008F7DF9CF8091A000877FF5CF4B
:1005B000809120018F778093200108958091200100
:1005C0008F7DF9CF80912001877FF5CF1F93CF9347
:1005D000DF93282F30E0F901E455FE4F8491F901B3
:1005E000EE50FE4FD491F901EE5AFD4FC491CC2349
:1005F000A9F0162F81110E947F02EC2FF0E0EE0F80
:10060000FF1FE85CFD4FA591B4918FB7F894EC9172
:10061000111108C0D095DE23DC938FBFDF91CF91FD
:100620001F910895DE2BF8CF1092190381E080937B
:100630001B0310921A0361E084E10E94E60261E06C
:1006400085E10E94E602E9EBF0E080818E7F808305
:1006500080818D7F808388E48093B80085E48093D7
:10066000BC000895CF93DF9391E09093D00288234C
:10067000B9F0C091B800D091BA008091BC008A7BDB
:100680008093BC0060E084E10E94E60260E085E1C6
:100690000E94E6020E941403D093BA00C093B800EF
:1006A000DF91CF910895CF93DF9390E0FC01EE505E
:1006B000FE4F24918E5A9D4FFC0184918823C9F0EE
:1006C00090E0880F991FFC01EE56FE4FA591B49162
:1006D000FC01E85CFD4FC591D49161110DC09FB73D
:1006E000F8948C91209582238C93888128232883E9
:1006F0009FBFDF91CF910895623051F49FB7F89476
:100700003C91822F809583238C93E8812E2BEFCF11
:100710008FB7F894EC912E2B2C938FBFEACF3FB775
:10072000F8948091820290918302A0918402B0910A
:10073000850226B5A89B05C02F3F19F00196A11D83
:10074000B11D3FBFBA2FA92F982F8827BC01CD011B
:10075000620F711D811D911D42E0660F771F881F7A
:10076000991F4A95D1F708958F929F92AF92BF92A9
:10077000CF92DF92EF92FF924B015C010E948F03B8
:100780006B017C010E948F036C197D098E099F0902
:10079000683E734081059105A8F321E0821A910813
:1007A000A108B10888EEC80E83E0D81EE11CF11C38
:1007B00081149104A104B10429F7FF90EF90DF9018
:1007C000CF90BF90AF909F908F900895AF92BF92BF
:1007D000CF92DF92EF92FF920F931F93CF93DF930D
:1007E0006C017B018B01040F151FEB015E01AE183C
:1007F000BF08C017D10759F06991D601ED91FC915E
:100800000190F081E02DC6011995892B79F7C5017A
:10081000DF91CF911F910F91FF90EF90DF90CF90DC
:10082000BF90AF900895FC01538D448D252F30E08B
:10083000842F90E0821B930B541710F0CF960895ED
:1008400001970895FC01918D828D981761F0A28D1A
:10085000AE0FBF2FB11D5D968C91928D9F5F9F73E0
:10086000928F90E008958FEF9FEF0895FC01918D96
:10087000828D981731F0828DE80FF11D858D90E003
:1008800008958FEF9FEF0895FC01918D228D892FA0
:1008900090E0805C9F4F821B91098F739927089588
:1008A0008BE493E00E94440421E0892B09F420E0CA
:1008B000822F0895FC01A48DA80FB92FB11DA35A52
:1008C000BF4F2C91848D90E001968F739927848F70
:1008D000A689B7892C93A089B1898C918370806493
:1008E0008C93938D848D981306C00288F389E02D34
:1008F00080818F7D80830895EF92FF920F931F93E5
:10090000CF93DF93EC0181E0888F9B8D8C8D9813C2
:100910001AC0E889F989808185FF15C09FB7F894CE
:10092000EE89FF896083E889F9898081837080641A
:1009300080839FBF81E090E0DF91CF911F910F9165
:10094000FF90EF900895F62E0B8D10E00F5F1F4F74
:100950000F731127E02E8C8D8E110CC00FB607FC83
:10096000FACFE889F989808185FFF5CFCE010E9411
:100970005A04F1CFEB8DEC0FFD2FF11DE35AFF4F21
:10098000F0829FB7F8940B8FEA89FB89808180629F
:10099000CFCFCF93DF93EC01888D8823B9F0AA895C
:1009A000BB89E889F9898C9185FD03C0808186FD2A
:1009B0000DC00FB607FCF7CF8C9185FFF2CF808179
:1009C00085FFEDCFCE010E945A04E9CFDF91CF9190
:1009D000089580E090E0892B29F00E945004811155
:1009E0000E94000080E090E0892B49F080E090E0D8
:1009F000892B29F00E94000081110E94000080E0F4
:100A000090E0892B49F080E090E0892B29F00E944A
:100A1000000081110E94000080E090E0892B49F0E5
:100A200080E090E0892B29F00E94000081110C9455
:100A300000000895CF92DF92EF92FF920F931F93E1
:100A4000CF93DF93FC01C48121E02093A602C093E1
:100A50007C021092CA021092C9028485682B8FE32F
:100A600093E00E945002D091C902D13208F092C0A6
:100A70000E948F036B017C0180911903811165C075
:100A800082E08093190381E080931B038FEF8093B2
:100A9000180310923D03D0933C03A6E8B2E0ECE1CA
:100AA000F3E080E0D81385C010923E0380913E03AE
:100AB000CC0FC82BC0933E0380911A03813009F0FC
:100AC0007CC010921A030E948F036B017C018091FD
:100AD0003E038093BB008091CC029091CD02A09107
:100AE000CE02B091CF02892B8A2B8B2B99F00E94DA
:100AF0008F030091CC021091CD022091CE02309153
:100B0000CF026C197D098E099F0906171707280760
:100B10003907E0F18091BC0083FDD9CF85EC80934B
:100B2000BC000E948F036B017C018091190382300D
:100B300009F445C0809118038F3F61F1809118033B
:100B4000803241F18091180325C08091CC029091B0
:100B5000CD02A091CE02B091CF02892B8A2B8B2B94
:100B600009F48ACF0E948F030091CC021091CD022C
:100B70002091CE023091CF026C197D098E099F0918
:100B8000061717072807390708F076CF8091CB02A0
:100B90000E9432031092CA021092C9021092A60259
:100BA000DF91CF911F910F91FF90EF90DF90CF9049
:100BB00008959D9191938F5F75CF85EEB0CF809111
:100BC000CC029091CD02A091CE02B091CF02892BA0
:100BD0008A2B8B2B09F4A9CF0E948F030091CC02A2
:100BE0001091CD022091CE023091CF026C197D0977
:100BF0008E099F09061717072807390708F095CFB0
:100C0000C5CF089590E080E008950F931F93CF9390
:100C10008C01C62F0E941A056C2F6460C8010E94C7
:100C20001A056C2F6B7FC8010E941A0583EC90E0B7
:100C30000197F1F7CF911F910F9108950F931F9393
:100C4000CF93DF938C01D62FC42F607F642B0E943B
:100C5000050680E1D89FB00111246C2BC801DF91FB
:100C6000CF911F910F910C940506CF93DF9300D085
:100C700000D01F921F92CDB7DEB798E0E8E0F2E017
:100C8000DE01119601900D929A95E1F7909106047C
:100C9000981710F48FEF890F90E0880F991F21E0CB
:100CA00030E02C0F3D1F820F931FFC0160816068B4
:100CB00040E08EEF93E028960FB6F894DEBF0FBEAB
:100CC000CDBFDF91CF910C941E0641E00E941E061D
:100CD00081E090E0089585ED8093BC008091CC0286
:100CE0009091CD02A091CE02B091CF020796A11DA6
:100CF000B11D23E0B695A795979587952A95D1F7CD
:100D00002091BC0024FD03C0109219030895409166
:100D1000CC025091CD026091CE027091CF02452B52
:100D2000462B472B69F30097A105B10541F02AE254
:100D30002A95F1F700C00197A109B109E1CF80918F
:100D4000CB020C943203FB0101900020E9F73197AC
:100D5000AF01461B570BDC01ED91FC910280F38142
:100D6000E02D19948F929F92AF92BF920F931F9391
:100D7000CF93DF93CDB7DEB7A1970FB6F894DEBF60
:100D80000FBECDBF19A2423008F44AE08E010F5DBC
:100D90001F4F842E912CB12CA12CA50194010E94EF
:100DA000810CE62FB901CA01EA3004F5E05DD801F3
:100DB000EE938D01232B242B252B79F790E080E0F7
:100DC000109729F0BD018BE493E00E94A306A19641
:100DD0000FB6F894DEBF0FBECDBFDF91CF911F914C
:100DE0000F91BF90AF909F908F900895E95CDFCFF7
:100DF0001F920F920FB60F9211240BB60F922F93E2
:100E00003F934F935F936F937F938F939F93AF9392
:100E1000BF93EF93FF938091B900887F803609F4E8
:100E20004DC008F040C0883209F4A9C028F58031CF
:100E300009F49DC0C8F4882309F4FBC0883009F484
:100E400096C0FF91EF91BF91AF919F918F917F914C
:100E50006F915F914F913F912F910F900BBE0F902B
:100E60000FBE0F901F901895883109F488C080320A
:100E700041F78093180314C0803409F49DC040F4F6
:100E80008033B9F38833E9F68093180385ECB0C05A
:100E9000803509F485C0883509F496C0883489F610
:100EA0000E946B06CECF883909F48CC038F588379C
:100EB00029F050F4883611F0803719F683E08093DA
:100EC00019031092170357C0883809F47BC0803982
:100ED00019F0803809F0B5CF80911703803208F0FF
:100EE00071C0E091170381E08E0F8093170380910A
:100EF000BB00F0E0E950FD4F80833DC0803B39F0FE
:100F0000E0F4803A09F479C0883A09F09ACF84E095
:100F1000809319031092F4021092F302E091F1020F
:100F2000F091F20219958091F30281110FC081E0D6
:100F30008093F3021092D10209C0803C09F4A6CF3D
:100F4000883C09F4A3CF883B09F07BCFE091F40201
:100F500081E08E0F8093F402F0E0EF52FD4F80812C
:100F60008093BB009091F4028091F30229C080919C
:100F70003E038093BB0085EC8093BC0062CF9091D0
:100F80003D0380913C03981758F5E0913D0381E0C3
:100F90008E0F80933D03F0E0E45EFC4F8081E9CF4B
:100FA000E0913D0381E08E0F80933D038091BB0073
:100FB000F0E0E45EFC4F808390913D0380913C0320
:100FC0009817C8F285E8D8CFE0913D0381E08E0FF5
:100FD00080933D038091BB00F0E0E45EFC4F808392
:100FE00080911B0381115CCF81E080931A0384EA16
:100FF0008093BC001092190324CF85EC8093BC0031
:101000001092190380911703803230F4E091170396
:10101000F0E0E950FD4F10826091170370E0E0911D
:10102000F502F091F60287EF92E0199510921703FE
:1010300008CF1092180334CF1F920F920FB60F9261
:1010400011242F933F938F939F93AF93BF938091DE
:101050007E0290917F02A0918002B0918102309136
:101060007D0223E0230F2D3758F50196A11DB11DF8
:1010700020937D0280937E0290937F02A093800252
:10108000B09381028091820290918302A0918402A8
:10109000B09185020196A11DB11D809382029093AB
:1010A0008302A0938402B0938502BF91AF919F9178
:1010B0008F913F912F910F900FBE0F901F90189519
:1010C00026E8230F0296A11DB11DD2CF1F920F92C9
:1010D0000FB60F9211240BB60F922F933F934F939D
:1010E0005F936F937F938F939F93AF93BF93EF9390
:1010F000FF938BE493E00E945A04FF91EF91BF911C
:10110000AF919F918F917F916F915F914F913F919F
:101110002F910F900BBE0F900FBE0F901F90189540
:101120001F920F920FB60F9211240BB60F922F93AE
:101130008F939F93EF93FF93E0915B03F0915C0398
:101140008081E0916103F091620382FD1DC0908176
:10115000809164038F5F8F7320916503821741F044
:10116000E0916403F0E0E55BFC4F958F80936403AE
:10117000FF91EF919F918F912F910F900BBE0F9048
:101180000FBE0F901F9018958081F2CF10924203EE
:101190001092410388EE93E0A0E0B0E08093430317
:1011A00090934403A0934503B093460324E132E0B7
:1011B0003093400320933F0310924E0310924D034F
:1011C00080934F0390935003A0935103B093520325
:1011D00086E292E090934C0380934B0385EC90E081
:1011E000909358038093570384EC90E090935A03B4
:1011F0008093590320EC30E030935C0320935B0331
:1012000081EC90E090935E0380935D0382EC90E02C
:101210009093600380935F0386EC90E09093620369
:101220008093610310926403109265031092660329
:1012300010926703109201041092000488E392E078
:101240009093FF038093FE031092070487E280933C
:10125000020484E18093080484E0809309041092DE
:101260000A041092E9031092F0031092F70310920F
:10127000F8031092F9031092FA0381E08093F603C9
:101280008093F3031092F40392E09093F50380931C
:10129000E8033093ED032093EC0380EC90E00E9490
:1012A000AB0C9093F2038093F103009789F120EC4B
:1012B000FC0111922A95E9F780E490E09093EB030A
:1012C0008093EA0386E090E09093EF038093EE032F
:1012D0008091E903882341F061E086E00E94530396
:1012E00060E086E00E94E602E8E5F2E0E491F0E0EA
:1012F000EE0FFF1FE85CFD4F859194919093FC03E6
:101300008093FB03E8EFF1E0E491E093FD0308959F
:101310001092ED031092EC031092EB031092EA038B
:10132000D1CFCF93DF9300D000D000D0CDB7DEB7C0
:10133000789484B5826084BD84B5816084BD85B5B0
:10134000826085BD85B5816085BD80916E008160BC
:1013500080936E0010928100809181008260809362
:101360008100809181008160809381008091800064
:101370008160809380008091B10084608093B1008F
:101380008091B00081608093B00080919100826074
:101390008093910080919100816080939100809171
:1013A00090008160809390008091A1008260809382
:1013B000A1008091A10081608093A1008091A00094
:1013C00081608093A000809121018260809321013F
:1013D00080912101816080932101809120018160B1
:1013E0008093200180917A00846080937A008091BC
:1013F0007A00826080937A0080917A008160809385
:101400007A0080917A00806880937A001092C100FF
:10141000E0915B03F0915C0382E08083E0915703ED
:10142000F09158031082E0915903F0915A038FEC28
:10143000808310926303E0915F03F091600386E084
:101440008083E0915D03F0915E0380818061808301
:10145000E0915D03F0915E03808188608083E0917C
:101460005D03F0915E03808180688083E0915D037D
:10147000F0915E0380818F7D808362E086E10E942F
:1014800053031092C8021092C7021092CA0210921F
:10149000C9020E94140387EF91E09093F2028093B7
:1014A000F10288EF91E09093F6028093F50210929A
:1014B000030480910904823018F098E090930304AB
:1014C0008093060462E370E080E090E00E94B40341
:1014D00060910A048EEF93E00E941A0568EE73E0B3
:1014E00080E090E00E94B40360E38EEF93E00E94FE
:1014F00005060BE416E4C8010197F1F760E38EEFEF
:1015000093E00E940506C8010197F1F760E38EEFB2
:1015100093E00E94050683E592E00197F1F760E20F
:101520008EEF93E00E94050660910304606240E044
:101530008EEF93E00E941E0684E08093040440E056
:101540006CE08EEF93E00E941E0640E061E08EEFBB
:1015500093E00E941E068BE39FE10197F1F78091D3
:101560000704882319F080E00E94350682E080930A
:10157000050440E066E08EEF93E00E941E0640E026
:1015800062E08EEF93E00E941E068BE39FE10197DD
:10159000F1F788E080930A0460E08EEF93E00E9408
:1015A0001A0580E00E94350660E472E08EEF93E059
:1015B0000E94A30681E00E94350669E472E08EEF86
:1015C00093E00E94A30682E00E94350661E572E086
:1015D0008EEF93E00E94A30683E00E94350669E542
:1015E00072E08EEF93E00E94A3068091EE0390914B
:1015F000EF0397FD08C061E00E94530360E0809113
:10160000EE030E94E60281E08093E9038091EA0301
:101610009091EB03892B41F040E050E06FEF70E0D8
:1016200090E080E00E9481018091EA039091EB03B9
:101630008034910540F04FEF50E060E070E08FE3C0
:1016400090E00E9481018091F1039091F203892B37
:1016500009F47CC00E948F030091F7031091F803F6
:101660002091F9033091FA036017710782079307FD
:1016700040F46093F7037093F8038093F903909319
:10168000FA030091F7031091F8032091F9033091C8
:10169000FA03601B710B820B930B6C327140810556
:1016A0009105C0F2F8948091EC039091ED039A8338
:1016B0008983E091F103F091F203DF0111968081BB
:1016C00089879091E803E091FB03F091FC038091FE
:1016D000FD03992309F4C9C09081982B98879081C4
:1016E000809589238F838F818C8388E08B835885B5
:1016F0006F8149853B812C8189819A81508347FD87
:10170000252F3A952083262F39F0441F00C0000072
:101710006083000000C0F2CF38E04D91608300008C
:10172000019761F7F093FC03E093FB0349873B8348
:101730002C839A83898378940E948F036093F703A4
:101740007093F8038093F9039093FA0363E672E0D1
:101750008BE493E00E94A3066EE672E08BE493E0D4
:101760000E94A30602EC11E098E0E92E92E0F92E27
:1017700028E6C22E22E0D22E30E4A32EF801849176
:10178000F701B490F6019490992009F4A7C0811153
:101790000E947F02E92DF0E0EE0FFF1FE858FE4F98
:1017A000A591B4918C91B82291E080E009F490E089
:1017B000892E982E8091000290910102881599053A
:1017C00009F44AC061E772E08BE493E00E94A3064B
:1017D0004AE0B401092C000C880B990B0E94B20658
:1017E00066E772E08BE493E00E94A30680917B00A1
:1017F000886080937B00A0927C0080917A00806456
:1018000080937A0080917A0086FDFCCF409078002A
:1018100050907900052C000C660877084AE0C30157
:10182000B20177FE0DC06DE28BE493E00E947C0470
:1018300066277727CB0164197509860997094AE05D
:101840000E94B2066EE672E08BE493E00E94A3066B
:10185000909201028092000264E170E080E090E0EA
:101860000E94B4030E94E90489CF9081982B988745
:101870009081809589238F838F818E8388E08D83EB
:1018800058856F8149853D812E8189819A81508358
:1018900047FD252F00C000C0208300C000C000C04D
:1018A00000C000C060830000262F3A9541F0441F1D
:1018B000000000C000C000C000C000C0E8CF38E099
:1018C0004D9100C0608300C0019709F7F093FC03BD
:1018D000E093FB0349873D832E832BCF912C812CF2
:1018E00069CF8091F1039091F2030E94470D80919E
:1018F000EE039091EF0397FD03C060E00C94530357
:101900000895A1E21A2EAA1BBB1BFD010DC0AA1F40
:10191000BB1FEE1FFF1FA217B307E407F50720F058
:10192000A21BB30BE40BF50B661F771F881F991FD3
:101930001A9469F760957095809590959B01AC011C
:10194000BD01CF010895EE0FFF1F881F8BBF0790C9
:10195000F691E02D19940F931F93CF93DF9382306C
:10196000910510F482E090E0E0910D04F0910E04F6
:1019700030E020E0B0E0A0E0309799F42115310587
:1019800009F44AC0281B390B24303105D8F58A8167
:101990009B816115710589F1FB0193838283FE01AF
:1019A00011C0408151810281138148175907E0F02D
:1019B0004817590799F4109761F012960C931297F3
:1019C00013961C933296CF01DF91CF911F910F9107
:1019D000089500930D0410930E04F4CF21153105E2
:1019E00051F04217530738F0A901DB019A01BD01FC
:1019F000DF01F801C1CFEF01F9CF90930E0480937E
:101A00000D04CDCFFE01E20FF31F8193919322507D
:101A1000310939832883D7CF20910B0430910C04EE
:101A2000232B41F4209104023091050230930C04E1
:101A300020930B04209102023091030221153105FD
:101A400041F42DB73EB74091060250910702241B86
:101A5000350BE0910B04F0910C04E217F307A0F4AE
:101A60002E1B3F0B2817390778F0AC014E5F5F4FF4
:101A70002417350748F04E0F5F1F50930C04409316
:101A80000B04819391939FCFF0E0E0E09CCFCF9344
:101A9000DF930097E9F0FC01329713821282A09144
:101AA0000D04B0910E04ED0130E020E01097A1F498
:101AB00020813181820F931F20910B0430910C04FF
:101AC0002817390709F061C0F0930C04E0930B0468
:101AD000DF91CF910895EA01CE17DF07E8F54A813B
:101AE0005B819E0141155105B1F7E901FB83EA8352
:101AF00049915991C40FD51FEC17FD0761F48081FE
:101B000091810296840F951FE901998388838281D0
:101B100093819B838A83F0E0E0E012968D919C9103
:101B200013970097B9F52D913C911197CD0102962D
:101B3000820F931F20910B0430910C042817390752
:101B400039F6309751F510920E0410920D04B093AF
:101B50000C04A0930B04BCCFD383C283408151817A
:101B6000840F951FC817D90761F44E5F5F4F8881B6
:101B70009981480F591F518340838A819B819383A8
:101B800082832115310509F0B0CFF0930E04E09364
:101B90000D049ECFFD01DC01C0CF13821282D7CF8E
:101BA00011E0CDE4D1E000E006C0802FFE010E94EC
:101BB000A30C2196011DCE34D10780E00807A9F7B8
:041BC000F894FFCFC7
:101BC400FFFF00000F0480000000400014005400D8
:101BD40000000000500223020206F9011C0209025F
:101BE400FA01000000007C04E6031304C904440461
:101BF40022043604000000006506E603020601061E
:101C0400526F77207A65726F00526F77206F6E651E
:101C140000526F772074776F00526F772074687268
:101C24006565006D656761207265616479000D0A00
:0C1C3400006232323D002061383D0000AB
:00000001FF
