:100000000C945B010C94DC050C94B1050C948605F2
:100010000C945B050C9430050C9405050C94DA04E3
:100020000C94AF040C948C010C948C010C948C01F6
:100030000C948C010C948C010C948C010C948C010C
:100040000C948C010C948C010C948C010C948C01FC
:100050000C948C010C948C010C948C010C94650410
:100060000C948C010C9491060C9467060C948C01F2
:100070000C948C010C948C010C948C010C948C01CC
:100080000C948C010C948C010C948C010C948C01BC
:100090000C9431060C9407060C948C010C948C0182
:1000A0000C948C010C948C010C948C010C948C019C
:1000B0000C948C010C948C010C948C010C948C018C
:1000C0000C948C010C948C010C948C010C948C017C
:1000D0000C948C010C948C010C948C010C948C016C
:1000E0000C948C010C94DC080C94DF010C94AC0192
:1000F0000C94ED010C94CB010C94F1010C94770954
:100100000C945F090C94C7010C941E090C941803FD
:100110000C9412090C94BA010C942B080C9400094D
:100120000C94E3010C9447090C942A090C940909D6
:100130000C94B9020C9483090C94F4080C94AF024B
:100140000C94F6020C946B090C94B2010C94BA0254
:100150000C94E7020C94BE010C94E8080C94D101B5
:100160000C94D9010C94A7030C94B6010C94C70607
:100170000C9453090C94E7010C94D6080C9436099E
:100180000C94EC010C940A030C94C1010C945A03D6
:100190000C94D501000020002300260029002C002B
:1001A0002F003200000100000301060109010000D8
:1001B0002100240027002A002D0030003300010117
:1001C0000000040107010A010000220025002800A8
:1001D0002B002E003100340002010000050108014F
:1001E0000B010505050507050808080802020202BB
:1001F0000A0A0808040404040101010101010101C3
:100200000303030303030303040707070C0C0C0C8D
:100210000C0C0C0C02020202060606060606060676
:100220000B0B0B0B0B0B0B0B010210202008081003
:100230002040102040800201020108040201010256
:10024000040810204080804020100804020180042F
:10025000020180402010080402010804020101028A
:100260000408102040800102040810204080000093
:100270000A0B02090C0D0E08070304010000000020
:10028000000000000000000000000000000000006E
:10029000000000000000000000001211100000002B
:1002A000000000000000000000000000000000004E
:1002B00000000000C70611241FBECFEFD1E2DEBF51
:1002C000CDBF00E00CBF12E0A0E0B2E0E0E7F3E158
:1002D00000E00BBF02C007900D92AE34B107D9F712
:1002E00023E0AEE4B2E001C01D92A339B207E1F70A
:1002F00011E0CBE5D1E000E006C021970109802F95
:10030000FE010E94AE09CA35D10780E00807A9F7AF
:100310000E941A070C94B6090C9400008150823197
:1003200008F05AC0E82FF0E08827E656FE4F8F4FBE
:100330000C94AE09BA01BE01AC01B201B601EC01E8
:10034000C101C701CB01D101D501D901DF01E30111
:10035000EC01E701ED01F101809180008F7780933E
:1003600080000895809180008F7DF9CF809180007A
:10037000877FF5CF84B58F7784BD089584B58F7D51
:10038000FBCF8091B0008F778093B000089580916B
:10039000B0008F7DF9CF809190008F77809390008F
:1003A0000895809190008F7DF9CF80919000877F94
:1003B000F5CF8091A0008F778093A0000895809161
:1003C000A0008F7DF9CF8091A000877FF5CF80912D
:1003D00020018F77809320010895809120018F7DE7
:1003E000F9CF80912001877FF5CF1F93CF93DF93C3
:1003F000282F30E0F901E259FD4F8491F901E85DC1
:10040000FD4FD491F901EE51FE4FC491CC23A9F0D8
:10041000162F81110E948E01EC2FF0E0EE0FFF1FCE
:10042000E853FE4FA591B4918FB7F894EC91111158
:1004300008C0D095DE23DC938FBFDF91CF911F9151
:100440000895DE2BF8CFCF93DF9390E0FC01E85DB9
:10045000FD4F24918E519E4FFC0184918823D1F051
:1004600090E0880F991FFC01E255FE4FA591B491D1
:10047000FC01E853FE4FC591D491623071F49FB7EF
:10048000F8943C91822F809583238C93E8812E2BC6
:1004900028839FBFDF91CF9108958FB7F894EC9197
:1004A0002E2B2C938FBFF6CF3FB7F8948091550237
:1004B00090915602A0915702B091580226B5A89B80
:1004C00005C02F3F19F00196A11DB11D3FBFBA2FE6
:1004D000A92F982F8827BC01CD01620F711D811DA6
:1004E000911D42E0660F771F881F991F4A95D1F72B
:1004F00008958F929F92AF92BF92CF92DF92EF9228
:10050000FF920E9454024B015C0184EFC82EDD244F
:10051000D394E12CF12C0E945402681979098A09BC
:100520009B09683E734081059105A8F321E0C21A3A
:10053000D108E108F10888EE880E83E0981EA11C1E
:10054000B11CC114D104E104F10429F7FF90EF902C
:10055000DF90CF90BF90AF909F908F900895809143
:100560004E0290914F02019690934F0280934E025B
:1005700008950895AF92BF92CF92DF92EF92FF92CB
:100580000F931F93CF93DF936C017B018B01040FBB
:10059000151FEB015E01AE18BF08C017D10759F057
:1005A0006991D601ED91FC910190F081E02DC60199
:1005B0001995892B79F7C501DF91CF911F910F9183
:1005C000FF90EF90DF90CF90BF90AF900895FC0127
:1005D000538D448D252F30E0842F90E0821B930BA8
:1005E000541710F0CF96089501970895FC01918D4E
:1005F000828D981761F0A28DAE0FBF2FB11D5D9651
:100600008C91928D9F5F9F73928F90E008958FEFF2
:100610009FEF0895FC01918D828D981731F0828DA6
:10062000E80FF11D858D90E008958FEF9FEF0895FD
:10063000FC01918D228D892F90E0805C9F4F821B61
:1006400091098F739927089589E592E00E94180314
:1006500021E0892B09F420E0822F089586EF92E0B3
:100660000E94180321E0892B09F420E0822F0895CD
:10067000FC01A48DA80FB92FB11DA35ABF4F2C9117
:10068000848D90E001968F739927848FA689B7890E
:100690002C93A089B1898C91837080648C93938D05
:1006A000848D981306C00288F389E02D80818F7DA8
:1006B00080830895EF92FF920F931F93CF93DF9360
:1006C000EC0181E0888F9B8D8C8D98131AC0E8898E
:1006D000F989808185FF15C09FB7F894EE89FF895D
:1006E0006083E889F98980818370806480839FBFFB
:1006F00081E090E0DF91CF911F910F91FF90EF90FB
:100700000895F62E0B8D10E00F5F1F4F0F7311270A
:10071000E02E8C8D8E110CC00FB607FCFACFE88945
:10072000F989808185FFF5CFCE010E943803F1CF92
:10073000EB8DEC0FFD2FF11DE35AFF4FF0829FB7B9
:10074000F8940B8FEA89FB8980818062CFCFCF93A9
:10075000DF93EC01888D8823B9F0AA89BB89E889E9
:10076000F9898C9185FD03C0808186FD0DC00FB68F
:1007700007FCF7CF8C9185FFF2CF808185FFEDCF0D
:10078000CE010E943803E9CFDF91CF91089580E038
:1007900090E0892B29F00E942E0381110E94000015
:1007A00080E090E0892B29F00E94240381110E94AF
:1007B000000080E090E0892B49F080E090E0892BF8
:1007C00029F00E94000081110E94000080E090E06A
:1007D000892B49F080E090E0892B29F00E940000ED
:1007E00081110C9400000895FB0101900020E9F7AD
:1007F0003197AF01461B570B0C94BA028F929F9210
:10080000AF92BF920F931F93CF93DF93CDB7DEB715
:10081000A1970FB6F894DEBF0FBECDBF19A242302C
:1008200008F44AE08E010F5D1F4F842E912CB12CED
:10083000A12CA50194010E948C09E62FB901CA01DF
:10084000EA3004F5E05DD801EE938D01232B242BD3
:10085000252B79F790E080E0109729F0BD0186EF15
:1008600092E00E94F403A1960FB6F894DEBF0FBE8B
:10087000CDBFDF91CF911F910F91BF90AF909F900F
:100880008F900895E95CDFCFCF92DF92EF92FF92D5
:10089000CF93DF936B017C016DE286EF92E00E94C3
:1008A0005A03EC0166277727CB016C197D098E0965
:1008B0009F094AE00E94FE038C0F9D1FDF91CF919C
:1008C000FF90EF90DF90CF9008951F920F920FB698
:1008D0000F9211242F933F938F939F93AF93BF93C6
:1008E0008091510290915202A0915302B091540212
:1008F0003091500223E0230F2D3758F50196A11DAA
:10090000B11D209350028093510290935202A09304
:100910005302B09354028091550290915602A091D7
:100920005702B09158020196A11DB11D8093550246
:1009300090935602A0935702B0935802BF91AF9183
:100940009F918F913F912F910F900FBE0F901F900D
:10095000189526E8230F0296A11DB11DD2CF1F9234
:100960000F920FB60F9211240BB60F922F933F9355
:100970004F935F936F937F938F939F93AF93BF93A7
:10098000EF93FF93E0910E02F0910F021995FF9102
:10099000EF91BF91AF919F918F917F916F915F91F7
:1009A0004F913F912F910F900BBE0F900FBE0F9064
:1009B0001F9018951F920F920FB60F9211240BB62D
:1009C0000F922F933F934F935F936F937F938F93E8
:1009D0009F93AF93BF93EF93FF93E0910C02F0913D
:1009E0000D021995FF91EF91BF91AF919F918F915A
:1009F0007F916F915F914F913F912F910F900BBE1F
:100A00000F900FBE0F901F9018951F920F920FB668
:100A10000F9211240BB60F922F933F934F935F9336
:100A20006F937F938F939F93AF93BF93EF93FF93B6
:100A3000E0910202F09103021995FF91EF91BF91AD
:100A4000AF919F918F917F916F915F914F913F9166
:100A50002F910F900BBE0F900FBE0F901F90189507
:100A60001F920F920FB60F9211240BB60F922F9375
:100A70003F934F935F936F937F938F939F93AF9326
:100A8000BF93EF93FF93E0910002F091010219955B
:100A9000FF91EF91BF91AF919F918F917F916F9156
:100AA0005F914F913F912F910F900BBE0F900FBE12
:100AB0000F901F9018951F920F920FB60F9211244E
:100AC0000BB60F922F933F934F935F936F937F9348
:100AD0008F939F93AF93BF93EF93FF93E0910A029D
:100AE000F0910B021995FF91EF91BF91AF919F91FA
:100AF0008F917F916F915F914F913F912F910F90C7
:100B00000BBE0F900FBE0F901F9018951F920F9263
:100B10000FB60F9211240BB60F922F933F934F9362
:100B20005F936F937F938F939F93AF93BF93EF9355
:100B3000FF93E0910802F09109021995FF91EF915E
:100B4000BF91AF919F918F917F916F915F914F91E5
:100B50003F912F910F900BBE0F900FBE0F901F90E3
:100B600018951F920F920FB60F9211240BB60F9289
:100B70002F933F934F935F936F937F938F939F93A5
:100B8000AF93BF93EF93FF93E0910602F0910702BA
:100B90001995FF91EF91BF91AF919F918F917F91A7
:100BA0006F915F914F913F912F910F900BBE0F90DE
:100BB0000FBE0F901F9018951F920F920FB60F92B5
:100BC00011240BB60F922F933F934F935F936F9324
:100BD0007F938F939F93AF93BF93EF93FF93E09196
:100BE0000402F09105021995FF91EF91BF91AF9129
:100BF0009F918F917F916F915F914F913F912F9135
:100C00000F900BBE0F900FBE0F901F9018951F9264
:100C10000F920FB60F9211240BB60F922F933F93A2
:100C20004F935F936F937F938F939F93AF93BF93F4
:100C3000EF93FF9389E592E00E943803FF91EF91D3
:100C4000BF91AF919F918F917F916F915F914F91E4
:100C50003F912F910F900BBE0F900FBE0F901F90E2
:100C600018951F920F920FB60F9211240BB60F9288
:100C70002F938F939F93EF93FF93E0916902F091ED
:100C80006A028081E0916F02F091700282FD1DC0C6
:100C90009081809172028F5F8F732091730282170F
:100CA00041F0E0917202F0E0E75AFD4F958F80939A
:100CB0007202FF91EF919F918F912F910F900BBE38
:100CC0000F900FBE0F901F9018958081F2CF1F924A
:100CD0000F920FB60F9211240BB60F922F933F93E2
:100CE0004F935F936F937F938F939F93AF93BF9334
:100CF000EF93FF9386EF92E00E943803FF91EF910C
:100D0000BF91AF919F918F917F916F915F914F9123
:100D10003F912F910F900BBE0F900FBE0F901F9021
:100D200018951F920F920FB60F9211240BB60F92C7
:100D30002F938F939F93EF93FF93E0910603F0918E
:100D400007038081E0910C03F0910D0382FD1DC02B
:100D5000908180910F038F5F8F7320911003821712
:100D600041F0E0910F03F0E0EA50FD4F958F809342
:100D70000F03FF91EF919F918F912F910F900BBED9
:100D80000F900FBE0F901F9018958081F2CFE9E56C
:100D9000F2E01382128248EE53E060E070E0448398
:100DA00055836683778384E192E0918380832DEC81
:100DB00030E0358724872CEC30E03787268728EC15
:100DC00030E0318B208B29EC30E0338B228B2AEC06
:100DD00030E0358B248B2EEC30E0378B268B118E58
:100DE000128E138E148EE6EFF2E013821282448389
:100DF0005583668377839183808385EC90E0958724
:100E0000848784EC90E09787868780EC90E0918BD4
:100E1000808B81EC90E0938B828B82EC90E0958BC1
:100E2000848B86EC90E0978B868B118E128E138EBE
:100E3000148E0895789484B5826084BD84B58160F1
:100E400084BD85B5826085BD85B5816085BD809195
:100E50006E00816080936E0010928100809181000D
:100E60008260809381008091810081608093810005
:100E7000809180008160809380008091B1008460C7
:100E80008093B1008091B00081608093B000809128
:100E900091008260809391008091910081608093A5
:100EA0009100809190008160809390008091A100DA
:100EB00082608093A1008091A10081608093A10055
:100EC0008091A00081608093A000809121018260C8
:100ED0008093210180912101816080932101809183
:100EE000200181608093200180917A00846080934A
:100EF0007A0080917A00826080937A0080917A00F3
:100F0000816080937A0080917A00806880937A0073
:100F10001092C100E0910603F091070322E02083C4
:100F2000E0910203F09103031082E0910403F09139
:100F3000050380E1808310920E03E0910A03F09193
:100F40000B0396E09083E0910803F0910903808100
:100F500080618083E0910803F091090380818860BB
:100F60008083E0910803F091090380818068808389
:100F7000E0910803F091090380818F7D8083E091E7
:100F80006902F0916A022083E0916502F0916602A5
:100F90001082E0916702F09168028FEC80831092DA
:100FA0007102E0916D02F0916E029083E0916B020C
:100FB000F0916C02808180618083E0916B02F091FE
:100FC0006C02808188608083E0916B02F0916C02FA
:100FD000808180688083E0916B02F0916C02808157
:100FE0008F7D808361E08DE00E94230262E082E1D8
:100FF0000E9423028FEA92E090930B0280930A02F0
:10100000809169008F73806880936900EB9A61E03A
:101010008CE20E942302EAE9F2E0E491E150E2313D
:1010200008F071C1F0E08827E75EF74F8F4F0C940E
:10103000AE092B08D608DC08E808F4088309000983
:10104000090912091E092A093609470953098309A2
:101050005F096B09770984B5806884BD80E487BD2A
:1010600062E272E086EF92E00E94F40362E372E0D3
:1010700086EF92E00E94F40365E372E089E592E076
:101080000E94F40362E372E089E592E00E94F403B7
:1010900090E4C92ECCE8D2E006E412E020E0E22E93
:1010A00022E0F22E61E08DE00E94F5010E947902BB
:1010B00060E08DE00E94F5010E94790269E372E030
:1010C00086EF92E00E94F4032FB7F89460915102EA
:1010D0007091520280915302909154022FBF4AE0C6
:1010E0000E94FE036CE372E086EF92E00E94F4033C
:1010F00080917B00886080937B00C0927C0080910F
:101100007A00806480937A0080917A0086FDFCCF1B
:101110006091780070917900072E000C880B990B74
:1011200097FFF6C00E94440461E472E086EF92E00B
:101130000E94F403FE018491F801B490F701D49069
:1011400070E060E0DD2099F081110E948E01ED2DAC
:10115000F0E0EE0FFF1FEC56FE4FA591B4918C917D
:10116000B82291E080E009F490E0692F782F072EF3
:10117000000C880B990B4AE00E94FE0367E472E0C2
:1011800086EF92E00E94F40360914E0270914F024C
:1011900090E080E04AE00E94FE0362E372E086EFA6
:1011A00092E00E94F4030E94C7037CCF84B5806262
:1011B00084BD80E488BD54CF809180008068809396
:1011C000800080E490E0909389008093880048CF6D
:1011D0008091800080628093800080E490E0909312
:1011E0008B0080938A003CCF809180008860809340
:1011F000800080E490E090938D0080938C0030CF4D
:101200008091B00080688093B00080E48093B30048
:1012100027CF8091B00080628093B00080E48093FB
:10122000B4001ECF8091900080688093900080E48D
:1012300090E0909399008093980012CF8091900055
:1012400080628093900080E490E090939B00809374
:101250009A0006CF8091900088608093900080E48F
:1012600090E090939D0080939C00FACE8091A00026
:1012700080688093A0008091A0008F7B8093A00065
:1012800080E490E09093A9008093A800E9CE80913B
:10129000A00080628093A00080E490E09093AB0077
:1012A0008093AA00DDCE8091A00088608093A0008A
:1012B00080E490E09093AD008093AC00D1CE80911B
:1012C000200180688093200180E490E090932901C0
:1012D00080932801C5CE80912001806280932001F7
:1012E00080E490E090932B0180932A01B9CE809105
:1012F000200188608093200180E490E090932D018C
:1013000080932C01ADCE60E08CE20E94F501A8CE66
:101310004AE00E94FE0308CFA1E21A2EAA1BBB1BC3
:10132000FD010DC0AA1FBB1FEE1FFF1FA217B307B1
:10133000E407F50720F0A21BB30BE40BF50B661FC7
:10134000771F881F991F1A9469F76095709580958B
:1013500090959B01AC01BD01CF010895EE0FFF1FD9
:10136000881F8BBF0790F691E02D1994F894FFCF5A
:10137000B902B902B902B902B902B902B902B90295
:10138000000000005A03BA02E702A7031803F6029E
:101390000A0348656C6C6F2066726F6D204D65673F
:1013A00061000D0A006F6E6500743D002061383DDC
:0E13B00000206433303D0020686974733D00F6
:00000001FF
