:100000000C945E000C9486000C9486000C94860080
:100010000C9486000C9486000C9486000C94860048
:100020000C9486000C9486000C9486000C94860038
:100030000C9486000C9486000C9486000C94860028
:100040000C946A020C9486000C9486000C94860032
:100050000C9486000C9486000C9486000C94860008
:100060000C9486000C9486000000000024002700F9
:100070002A0000000000250028002B0004040404CE
:100080000404040402020202020203030303030342
:10009000010204081020408001020408102001021F
:1000A00004081020000000080002010000030407FB
:1000B0000000000000000000B203C20311241FBEB4
:1000C000CFEFD8E0DEBFCDBF21E0A6E0B1E001C0B8
:1000D0001D92AF33B207E1F711E0A0E0B1E0E0E438
:1000E000FAE002C005900D92A630B107D9F710E0F2
:1000F000CDE5D0E004C02197FE010E94E103CC359C
:10010000D107C9F70E9410030C9413050C9400004A
:1001100090E0FC01EC55FF4F2491FC01E057FF4FAC
:100120003491FC01E458FF4FE491EE23B9F022230F
:1001300039F02330F1F098F4213009F1223019F12F
:10014000F0E0EE0FFF1FEE58FF4FA591B4918FB76F
:10015000F894EC9130953E233C938FBF089527305F
:10016000A9F02830C9F0243059F7809180008F7DA4
:1001700003C0809180008F7780938000E1CF84B5A9
:100180008F7784BDDDCF84B58F7DFBCF8091B000AC
:100190008F778093B000D4CF8091B0008F7DF9CF5E
:1001A000CF93DF9390E0FC01E057FF4F24918458F8
:1001B0009F4FFC0184918823D1F090E0880F991F14
:1001C000FC01E859FF4FA591B491FC01EE58FF4F97
:1001D000C591D49161110EC09FB7F8948C91E22F14
:1001E000E0958E238C932881E223E8839FBFDF91E3
:1001F000CF9108958FB7F894EC91E22BEC938FBFD9
:10020000F6CF3FB7F8948091370190913801A091D3
:100210003901B0913A0126B5A89B05C02F3F19F0CE
:100220000196A11DB11D3FBFBA2FA92F982F882776
:10023000BC01CD01620F711D811D911D42E0660F51
:10024000771F881F991F4A95D1F70895CF92DF92A3
:10025000EF92FF920F931F93CF93DF93CDB7DEB74B
:1002600029970FB6F894DEBF0FBECDBF8C010E9458
:100270000101D8011F96CD90DD90ED90FC90529732
:100280006C157D058E059F0528F4F8016787708B36
:10029000818B928BD8011F96CD90DD90ED90FC90D4
:1002A00052976C197D098E099F096C327140810546
:1002B0009105E8F2F894F801848195819A83898305
:1002C0000184F285E02D7F012FEFE21AF20A80818E
:1002D0008F83D8019C915396ED91FC91549755963C
:1002E0008C91992309F448C09081982B988790812C
:1002F00080958923898789858B8388E08C835885BD
:1003000069854F813C812B8189819A81D7015083F6
:1003100047FD252F3A952083262F39F0441F00C032
:1003200000006083000000C0F2CF38E04D91608390
:100330000000019761F7D8015496FC93EE93539710
:100340004F833C832B839A83898378940E94010195
:10035000F8016787708B818B928B29960FB6F89482
:10036000DEBF0FBECDBFDF91CF911F910F91FF90E8
:10037000EF90DF90CF9008959081982B988790818F
:1003800080958923898789858D8388E08E83588528
:1003900069854F813E812D8189819A81D701508362
:1003A00047FD252F00C000C0208300C000C000C052
:1003B00000C000C060830000262F3A9541F0441F22
:1003C000000000C000C000C000C000C0E8CF38E09E
:1003D0004D9100C0608300C0019709F7D801549681
:1003E000FC93EE9353974F833E832D83ACCF8F9234
:1003F0009F92AF92BF92CF92DF92EF92FF92CF93F4
:10040000DF93FC018281938168177907D8F54A014F
:10041000AA24BB24C32ED42EE52EFF24DC2DC22F0C
:100420008085982D882391F0C82FD0E0C89DD001F9
:10043000C99DB00DD89DB00D11249B2F8C9D6001DE
:100440001124DD2D829F90011124C32FA6852185C3
:1004500032858385A81321C0AB01440F551F640F5B
:10046000751F620F731FA385A60FB72FB11D9C9335
:10047000A485A60FB72FB11DDC938585680F711D6C
:10048000FB01C083DF91CF91FF90EF90DF90CF9081
:10049000BF90AF909F908F900895660F771F660F63
:1004A000771F620F731FA60FB72FB11D1C92DBCFF2
:1004B000CF93DF93EC018E819F8197FD06C061E0B1
:1004C0000E94D0008E810E94880081E08983DF91A4
:1004D000CF9108951F920F920FB60F9211242F9370
:1004E0003F938F939F93AF93BF93809133019091EC
:1004F0003401A0913501B09136013091320123E0F1
:10050000230F2D3758F50196A11DB11D20933201FF
:100510008093330190933401A0933501B093360159
:100520008091370190913801A0913901B0913A0141
:100530000196A11DB11D8093370190933801A093BE
:100540003901B0933A01BF91AF919F918F913F9143
:100550002F910F900FBE0F901F90189526E8230F34
:100560000296A11DB11DD2CFCF92DF92EF92FF92E2
:100570000F931F93CF93DF93EC016B01F42EE52EC5
:10058000198218861F86188A198A1A8A81E08E872E
:100590008B871C8692E09D8788838B01000F111F3B
:1005A000060F171F1D830C83C8010E94E7039A875B
:1005B0008987009781F1A80170E060E00E940C0536
:1005C000DB82CA82FE82EF828981882339F061E072
:1005D0008F2D0E94D0008F2D0E9488008F2D9E2D80
:1005E000FC01E458FF4FE491F0E0EE0FFF1FEE58DE
:1005F000FF4F259134913C8B2B8BFC01E057FF4F33
:10060000E491ED8BDF91CF911F910F91FF90EF90CF
:10061000DF90CF9008951D821C821B821A82D2CF58
:10062000789484B5826084BD84B5816084BD85B5CD
:10063000826085BD85B5816085BD80916E008160D9
:1006400080936E001092810080918100826080937F
:100650008100809181008160809381008091800081
:100660008160809380008091B10084608093B100AC
:100670008091B00081608093B00080917A008460A6
:1006800080937A0080917A00826080937A008091D2
:100690007A00816080937A0080917A0080688093EC
:1006A0007A001092C1008CE191E00E94580220E093
:1006B00030E04FEF50E070E060E08CE191E00E94AC
:1006C000F70120E03FEF40E050E061E070E08CE1B6
:1006D00091E00E94F7012FEF30E040E050E06FE042
:1006E00070E08CE191E00E94F701809125019091EA
:1006F0002601892B21F08CE191E00E94260186E001
:1007000091E00E9458022EE134E14AE050E070E0AE
:1007100060E086E091E00E94F7012CE332E348E2DA
:1007200050E061E070E086E091E00E94F7012AE588
:1007300030E546E450E062E070E086E091E00E943F
:10074000F70180910F0190911001892B21F086E033
:1007500091E00E942601C0E0D0E02097F1F30E94D2
:100760000000FBCF45E050E060E170E08CE191E0FB
:100770000E94B40246E050E063E070E086E091E061
:100780000C94B40280910F01909110010E94830497
:1007900080910C0190910D0197FD03C060E00E94D3
:1007A000D00080912501909126010E9483048091C0
:1007B00022019091230197FD03C060E00C94D000CA
:1007C0000895EE0FFF1F0590F491E02D09940F930B
:1007D0001F93CF93DF938230910510F482E090E075
:1007E000E0913D01F0913E0130E020E0B0E0A0E07A
:1007F000309799F42115310509F44AC0281B390BAB
:1008000024303105D8F58A819B816115710589F104
:10081000FB0193838283FE0111C0408151810281DB
:10082000138148175907E0F04817590799F41097B2
:1008300061F012960C93129713961C933296CF0187
:10084000DF91CF911F910F91089500933D01109377
:100850003E01F4CF2115310551F04217530738F00E
:10086000A901DB019A01BD01DF01F801C1CFEF0150
:10087000F9CF90933E0180933D01CDCFFE01E20F71
:10088000F31F819391932250310939832883D7CF65
:1008900020913B0130913C01232B41F42091020136
:1008A0003091030130933C0120933B0120910001E2
:1008B000309101012115310541F42DB73EB740912A
:1008C000040150910501241B350BE0913B01F0918F
:1008D0003C01E217F307A0F42E1B3F0B2817390742
:1008E00078F0AC014E5F5F4F2417350748F04E0F8C
:1008F0005F1F50933C0140933B01819391939FCFA5
:10090000F0E0E0E09CCFCF93DF930097E9F0FC01AB
:10091000329713821282A0913D01B0913E01ED0108
:1009200030E020E01097A1F420813181820F931FE5
:1009300020913B0130913C012817390709F061C033
:10094000F0933C01E0933B01DF91CF910895EA01E0
:10095000CE17DF07E8F54A815B819E0141155105FD
:10096000B1F7E901FB83EA8349915991C40FD51F7F
:10097000EC17FD0761F4808191810296840F951F29
:10098000E90199838883828193819B838A83F0E044
:10099000E0E012968D919C9113970097B9F52D91F7
:1009A0003C911197CD010296820F931F20913B013C
:1009B00030913C012817390739F6309751F51092DC
:1009C0003E0110923D01B0933C01A0933B01BCCF8E
:1009D000D383C28340815181840F951FC817D907E3
:1009E00061F44E5F5F4F88819981480F591F518391
:1009F00040838A819B81938382832115310509F08D
:100A0000B0CFF0933E01E0933D019ECFFD01DC01AC
:100A1000C0CF13821282D7CFDC0101C06D93415049
:100A20005040E0F7089510E0CDE5D0E004C0FE01AD
:100A30000E94E1032196CE35D107C9F7F894FFCF84
:060A400000003F018000F0
:00000001FF
