:100000000C9458000C9480000C9480000C94800098
:100010000C9480000C9480000C9480000C94800060
:100020000C9480000C9480000C9480000C94800050
:100030000C9480000C9480000C9480000C94800040
:100040000C946C060C9480000C94DC060C94B606A0
:100050000C9480000C9480000C9480000C94800020
:100060000C940E070C94800000000000250028006E
:100070002B00040404040404040402020202020229
:10008000030303030303010204081020408001025C
:1000900004081020010204081020000000080002DB
:1000A00001000003040700000000000000002D080C
:1000B00011241FBECFEFD8E0DEBFCDBF22E0A8E6FF
:1000C000B1E001C01D92AA3DB207E1F711E0A0E046
:1000D000B1E0E0EAFBE102C005900D92A836B1075D
:1000E000D9F710E0C8E5D0E004C02197FE010E94D6
:1000F000F509C735D107C9F70E9466080C94CE0DE3
:100100000C9400000895089590E0FC01E656FF4F1E
:100110002491FC01EA57FF4F3491FC01EE58FF4F48
:10012000E491EE23C9F0222339F0233001F1A8F441
:10013000213019F1223029F1F0E0EE0FFF1FE859CC
:10014000FF4FA591B4918FB7F894EC91611126C03F
:1001500030953E233C938FBF08952730A9F0283077
:10016000C9F0243049F7809180008F7D03C08091D1
:1001700080008F7780938000DFCF84B58F7784BD38
:10018000DBCF84B58F7DFBCF8091B0008F778093DC
:10019000B000D2CF8091B0008F7DF9CF3E2BDACF67
:1001A0003FB7F8948091B3019091B401A091B5014B
:1001B000B091B60126B5A89B05C02F3F19F0019656
:1001C000A11DB11D3FBFBA2FA92F982F8827BC01B1
:1001D000CD01620F711D811D911D42E0660F771FD9
:1001E000881F991F4A95D1F70895AF92BF92CF9279
:1001F000DF92EF92FF920F931F93CF93DF936C01E7
:100200007B018B01040F151FEB015E01AE18BF08C7
:10021000C017D10759F06991D601ED91FC91019079
:10022000F081E02DC6010995892B79F7C501DF9191
:10023000CF911F910F91FF90EF90DF90CF90BF90E3
:10024000AF900895FC01538D448D252F30E0842F0D
:1002500090E0821B930B541710F0CF9608950197EE
:100260000895FC01918D828D981761F0A28DAE0FDB
:10027000BF2FB11D5D968C91928D9F5F9F73928F62
:1002800090E008958FEF9FEF0895FC01918D828D8E
:10029000981731F0828DE80FF11D858D90E008955B
:1002A0008FEF9FEF0895FC01918D228D892F90E0B3
:1002B000805C9F4F821B91098F73992708958DE26F
:1002C00092E00E94530121E0892B09F420E0822F63
:1002D000089580E090E0892B29F00E945F01811150
:1002E0000C9400000895FC01A48DA80FB92FB11D36
:1002F000A35ABF4F2C91848D90E001968F7399275C
:10030000848FA689B7892C93A089B1898C91837039
:1003100080648C93938D848D981306C00288F38932
:10032000E02D80818F7D80830895EF92FF920F935F
:100330001F93CF93DF93EC0181E0888F9B8D8C8D91
:1003400098131AC0E889F989808185FF15C09FB785
:10035000F894EE89FF896083E889F9898081837048
:10036000806480839FBF81E090E0DF91CF911F91F7
:100370000F91FF90EF900895F62E0B8D10E00F5F18
:100380001F4F0F731127E02E8C8D8E110CC00FB6EE
:1003900007FCFACFE889F989808185FFF5CFCE0186
:1003A0000E947301F1CFEB8DEC0FFD2FF11DE35A8D
:1003B000FF4FF0829FB7F8940B8FEA89FB89808109
:1003C0008062CFCFCF93DF93EC01888D8823B9F083
:1003D000AA89BB89E889F9898C9185FD03C0808150
:1003E00086FD0DC00FB607FCF7CF8C9185FFF2CFCD
:1003F000808185FFEDCFCE010E947301E9CFDF91AF
:10040000CF91089520918901260F3327331F213280
:100410003105ECF420910302FC0190E080E02430EF
:1004200069F082E00895A09189012191AC014759BA
:100430005E4FA40FB52FB11D2C930196861798F32C
:1004400080918901680F6093890180E0089581E0BF
:1004500008951092030281E0809302021092DD0160
:1004600061E082E10E94840061E083E10E948400F7
:10047000E9EBF0E080818E7F808380818D7F8083B7
:1004800088E48093B80085E48093BC000895CF93FE
:10049000DF9391E0909368018823B9F0C091B80090
:1004A000D091BA008091BC008A7B8093BC0060E050
:1004B00082E10E94840060E083E10E9484000E9447
:1004C0002902D093BA00C093B800DF91CF9108956C
:1004D0008F929F92AF92BF92CF92DF92EF92FF9254
:1004E0000F931F93CF93DF93D0912C02D13208F05A
:1004F000D7C0182FC0912B020E94D0006B017C0145
:100500008091030281116BC082E0809303021093FB
:1005100002028FEF8093010210920002D093FF013C
:10052000ABE0B2E0EFEDF1E080E0D81391C01092C3
:10053000DE018091DE01CC0FC82BC093DE018091DB
:10054000DD01813009F088C01092DD010E94D000E9
:100550006B017C018091DE018093BB0080910502DC
:1005600090910602A0910702B0910802892B8A2B74
:100570008B2BA1F00E94D000009105021091060281
:1005800020910702309108026C197D098E099F099C
:10059000061717072807390708F442C08091BC00E6
:1005A00083FDD8CF85EC8093BC000E94D0006B0106
:1005B0007C0180910302823009F450C080910102D5
:1005C0008F3F09F46FC080910102803209F46CC042
:1005D00080910102803309F469C084E026C08091D3
:1005E000050290910602A0910702B0910802892BA2
:1005F0008A2B8B2B09F484CF0E94D00080900502B7
:1006000090900602A0900702B09008026C197D0934
:100610008E099F0986169706A806B90608F070CFBE
:10062000809104020E94470285E010920A02109213
:100630002C0210920902DF91CF911F910F91FF9030
:10064000EF90DF90CF90BF90AF909F908F900895E4
:100650009D9191938F5F69CF85EEA5CF8091050223
:1006600090910602A0910702B0910802892B8A2B73
:100670008B2B09F49ECF0E94D000009105021091AF
:10068000060220910702309108026C197D098E093B
:100690009F09061717072807390708F08ACFC0CF28
:1006A00081E0C3CF80E0C1CF82E0BFCF83E0BDCF88
:1006B0001F93CF93DF93EA01122FDC0111968D91E6
:1006C0009C91DC01ED91FC910280F381E02D099574
:1006D000C817D90729F4812F0E94680291E081117F
:1006E00090E0892FDF91CF911F910895CF93DF93F1
:1006F000EC018B818823A1F0888191E0909309021D
:1007000080932B0210920A0210922C0281E00E9428
:10071000680291E0811190E0892FDF91CF910895D7
:100720001092BC011092BB0110920A0210922C028E
:100730000E94290282E890E09093B8018093B7016B
:1007400083E890E09093BA018093B90181E08B83B4
:10075000CE010E947603982F8111CECFDDCF089570
:10076000E091BC018091BB01E81730F4F0E0E35464
:10077000FE4F808190E008958FEF9FEF0895909154
:10078000BC018091BB012FEF3FEF981748F4E92F90
:10079000F0E0E354FE4F208130E09F5F9093BC0176
:1007A000C90108958091BB019091BC01891B990BEF
:1007B0000895CF92DF92EF92FF920F931F93CF9302
:1007C000DF937C01CB018A0120910902222389F069
:1007D000EB016B01C40ED51ECC15DD0569F06991E6
:1007E000D701ED91FC910190F081E02DC7010995B1
:1007F000F3CF642F0E940202C801DF91CF911F91B5
:100800000F91FF90EF90DF90CF900895CF93DF93FB
:100810001F92CDB7DEB76983209109022223F9F038
:1008200020912C02203258F021E030E0FC0133838B
:10083000228390E080E00F90DF91CF910895809126
:100840000A02E82FF0E0E55FFD4F998190838F5F0A
:1008500080930A0280932C0281E090E0ECCF61E06B
:10086000CE0101960E940202F7CF90E080E0089549
:10087000CF93DF93FC0101900020E9F73197AF019E
:10088000481B590BBC018DE292E00E94F500EC017F
:1008900042E050E06AE271E08DE292E00E94F500F1
:1008A0008C0F9D1FDF91CF9108952F923F924F9211
:1008B0005F926F927F928F929F92AF92BF92CF92F0
:1008C000DF92EF92FF920F931F93CF93DF935C0120
:1008D0001B016A01F12CE12CD50114968D919C919C
:1008E00086010E191F098017910708F48C01F50184
:1008F000D0810E94D0002B013C0180910302811124
:1009000072C0C02F013208F0C0E2F1E0F0930302A0
:1009100021E0C601801B910BE816F90608F420E0DF
:10092000209302028FEF80930102109200028C0F3D
:100930008093FF01A1E0A093DE018091DE01DD0F35
:10094000D82BD093DE018091DD01813009F090C079
:100950001092DD010E94D0002B013C018091DE014C
:100960008093BB008091050290910602A09107023E
:10097000B0910802892B8A2B8B2BA1F00E94D0000A
:100980002091050230910602409107025091080221
:100990006419750986099709261737074807590703
:1009A00008F442C08091BC0083FDD8CFB5ECB09371
:1009B000BC000E94D0002B013C01809103028130D9
:1009C00009F45AC0809100028C1710F4C091000203
:1009D000AFEDB1E0EDEBF1E080E08C1751F19D91CE
:1009E00091938F5FFACF8091050290910602A091BA
:1009F0000702B0910802892B8A2B8B2B09F47DCF3B
:100A00000E94D00020910502309106024091070219
:100A10005091080264197509860997092617370746
:100A20004807590708F069CF809104020E944702E5
:100A3000C0E01092BC01C093BB01C017110609F0C1
:100A400057C041018E0C9F1CE401CE018819990901
:100A50008017910798F5D50111968D919C91DC0135
:100A6000ED91FC910284F385E02D09958993EDCFFA
:100A7000E5EEE093BC009DCF8091050290910602C7
:100A8000A0910702B0910802892B8A2B8B2B09F4C5
:100A900094CF0E94D000209105023091060240912F
:100AA00007025091080264197509860997092617EB
:100AB00037074807590708F080CFB6CFE00EF11E80
:100AC000EC14FD0408F408CF81E0DF91CF911F9171
:100AD0000F91FF90EF90DF90CF90BF90AF909F90DD
:100AE0008F907F906F905F904F903F902F900895E0
:100AF00080E0EBCF85ED8093BC0080910502909162
:100B00000602A0910702B09108020796A11DB11D2F
:100B100023E0B695A795979587952A95D1F72091CB
:100B2000BC0024FD03C01092030208954091050209
:100B3000509106026091070270910802452B462BE6
:100B4000472B69F30097A105B10541F02AE22A95E8
:100B5000F1F700C00197A109B109E1CF809104022A
:100B60000C944702EF92FF920F931F93CF93DF9362
:100B7000CDB7DEB7A8970FB6F894DEBF0FBECDBFD6
:100B80001982E090AC01F090AD01F701848195816C
:100B90008E010F5F1F4F892BC9F0808191E09093E8
:100BA000090280932B0210920A0210922C0220E07C
:100BB00041E050E0B801C7010E945803882331F09A
:100BC00047E050E0B801C7010E94550439813F77E2
:100BD0007A816B81AD818E819F81432F50E024E02B
:100BE000559547952A95E1F7242F220F220F421B96
:100BF000440F430F1F924F93272F30E044E0359569
:100C000027954A95E1F7322F330F330F231B220F1D
:100C1000270F1F922F93E62FF0E054E0F595E7950C
:100C20005A95E1F72E2F220F220FE21BEE0FE60F4F
:100C30001F92EF936A2F70E0E4E075956795EA954F
:100C4000E1F7262F220F220F621B660F6A0F1F92F9
:100C50006F93482F50E0F4E055954795FA95E1F7EA
:100C6000242F220F220F421B440F480F1F924F9335
:100C7000292F30E0A4E035952795AA95E1F7822F3A
:100C8000880F880FF22FF81B8F2F880F890F90E0A5
:100C90008053984F9F938F938DE291E09F938F9312
:100CA0001F9288E28F931F930F930E94200BC8011D
:100CB0000E9438040FB6F894DEBF0FBECDBFA896D1
:100CC0000FB6F894DEBF0FBECDBFDF91CF911F915D
:100CD0000F91FF90EF9008951F920F920FB60F9211
:100CE00011242F933F938F939F93AF93BF93809142
:100CF000AF019091B001A091B101B091B2013091DA
:100D0000AE0123E0230F2D3758F50196A11DB11D2B
:100D10002093AE018093AF019093B001A093B101F5
:100D2000B093B2018091B3019091B401A091B5014B
:100D3000B091B6010196A11DB11D8093B3019093AE
:100D4000B401A093B501B093B601BF91AF919F914B
:100D50008F913F912F910F900FBE0F901F9018957C
:100D600026E8230F0296A11DB11DD2CF1F920F922C
:100D70000FB60F9211242F933F934F935F936F936E
:100D80007F938F939F93AF93BF93EF93FF938DE2E6
:100D900092E00E947301FF91EF91BF91AF919F91FB
:100DA0008F917F916F915F914F913F912F910F9014
:100DB0000FBE0F901F9018951F920F920FB60F92B3
:100DC00011242F938F939F93EF93FF93E0913D0214
:100DD000F0913E028081E0914302F091440282FD55
:100DE0001BC09081809146028F5F8F7320914702D4
:100DF000821741F0E0914602F0E0E35DFD4F958FF0
:100E000080934602FF91EF919F918F912F910F90C8
:100E10000FBE0F901F9018958081F4CF1F920F92F4
:100E20000FB60F9211242F933F934F935F936F93BD
:100E30007F938F939F93AF93BF93EF93FF93809193
:100E4000B900887F803609F44AC0F0F5883209F489
:100E5000A7C018F5803109F49BC0B8F4882309F4C1
:100E6000F9C0883009F494C0FF91EF91BF91AF9120
:100E70009F918F917F916F915F914F913F912F91B2
:100E80000F900FBE0F901F901895883109F488C0FD
:100E9000803251F78093010214C0803409F49DC060
:100EA00040F48033B9F38833F9F68093010285EC7E
:100EB000B0C0803509F485C0883509F496C08834FF
:100EC00099F60E947A05D0CF883909F48CC038F59C
:100ED000883729F050F4883611F0803729F683E0FE
:100EE000809303021092AB0157C0883809F47BC08D
:100EF000803919F0803809F0B7CF8091AB0180328A
:100F000008F071C0E091AB0181E08E0F8093AB01DE
:100F10008091BB00F0E0E557FE4F80833DC0803BF1
:100F200039F0E0F4803A09F479C0883A09F09CCFAE
:100F300084E08093030210928A0110928901E0916B
:100F4000B701F091B80109958091890181110FC015
:100F500081E0809389011092690109C0803C09F405
:100F6000A6CF883C09F4A3CF883B09F07DCFE09160
:100F70008A0181E08E0F80938A01F0E0E759FE4FED
:100F800080818093BB0090918A018091890129C062
:100F90008091DE018093BB0085EC8093BC0064CF20
:100FA000909100028091FF01981758F5E09100029E
:100FB00081E08E0F80930002F0E0E152FE4F8081CD
:100FC000E9CFE091000281E08E0F809300028091D2
:100FD000BB00F0E0E152FE4F8083909100028091CF
:100FE000FF019817C8F285E8D8CFE091000281E0B0
:100FF0008E0F809300028091BB00F0E0E152FE4F23
:1010000080838091020281115CCF81E08093DD01B9
:1010100084EA8093BC001092030226CF85EC809373
:10102000BC00109203028091AB01803230F4E09159
:10103000AB01F0E0E557FE4F10826091AB0170E02C
:10104000E091B901F091BA018BE891E00995109215
:10105000AB010ACF1092010234CFEDE2F2E013822D
:10106000128288EE93E0A0E0B0E084839583A683AB
:10107000B7832AE031E03183208325EC30E03587E7
:10108000248724EC30E03787268720EC30E0318B52
:10109000208B21EC30E0338B228B22EC30E0358B3F
:1010A000248B26EC30E0378B268B118E128E138E1C
:1010B000148EEAECF2E01382128284839583A68375
:1010C000B7838CE191E0918380830895CF93DF9380
:1010D000CDB7DEB729970FB6F894DEBF0FBECDBFF0
:1010E000789484B5826084BD84B5816084BD85B503
:1010F000826085BD85B5816085BD80916E0081600F
:1011000080936E00109281008091810082608093B4
:1011100081008091810081608093810080918000B6
:101120008160809380008091B10084608093B100E1
:101130008091B00081608093B00080917A008460DB
:1011400080937A0080917A00826080937A00809107
:101150007A00816080937A0080917A008068809321
:101160007A001092C100E0913D02F0913E0282E0CF
:101170008083E0913902F0913A021082E0913B02C3
:10118000F0913C0280E1808310924502E09141029F
:10119000F091420286E08083E0913F02F0914002AC
:1011A000808180618083E0913F02F09140028081E4
:1011B00088608083E0913F02F091400280818068E6
:1011C0008083E0913F02F091400280818F7D808397
:1011D0008091AC019091AD01009711F00E94970AA7
:1011E00086E090E00E94FB098C0188E6F80180838C
:1011F0008AEC92E092838183138280E290E095836F
:1012000084831093AD010093AC011092BC01109245
:10121000BB0110920A0210922C020E94290282E85D
:1012200090E09093B8018093B70183E890E09093A9
:10123000BA018093B901FF24F394F801F382C80145
:101240000E947603811105C08FE591E00E94380469
:10125000FFCF19868091AC019091AD01FC012481F2
:101260003581232B89F02081F092090220932B02F3
:1012700010920A0210922C0221E041E050E0BE01DF
:10128000675F7F4F0E94580341E050E08E010F5F7F
:101290001F4FB8018091AC019091AD010E9455049F
:1012A000898190E0880F892F881F990B892B09F479
:1012B00062C087E591E00E9438040E94B20586E092
:1012C000F80111928A95E9F785E08A8384E08B839F
:1012D00083E08C8382E08E8321E02F8384E2888701
:1012E0008091AC019091AD01FC0144815581483061
:1012F000510570F030812093090230932B02109237
:101300000A0210922C0248E050E0B8010E945803F3
:101310000E94D0004B015C0180EDC82E87E0D82EE2
:10132000E12CF12C0E94D000681979098A099B09E7
:10133000683E734081059105A8F3F1E0CF1AD1080A
:10134000E108F10828EE820E23E0921EA11CB11CD8
:10135000C114D104E104F10429F70E94B20500E0B0
:1013600010E001151105E9F30E945F018823C9F31C
:101370000E940000F6CF8FE491E09DCF2F923F9224
:101380004F925F926F927F928F929F92AF92BF9295
:10139000CF92DF92EF92FF920F931F93CF93DF9341
:1013A000CDB7DEB7CA1BDB0B0FB6F894DEBF0FBE9E
:1013B000CDBF09942A88398848885F846E847D84EB
:1013C0008C849B84AA84B984C884DF80EE80FD80ED
:1013D0000C811B81AA81B981CE0FD11D0FB6F89463
:1013E000DEBF0FBECDBFED010895EE0FFF1F0590CC
:1013F000F491E02D09940F931F93CF93DF938230E4
:10140000910510F482E090E0E091D802F091D902C9
:1014100030E020E0B0E0A0E0309799F421153105EC
:1014200009F44AC0281B390B24303105D8F58A81CC
:101430009B816115710589F1FB0193838283FE0114
:1014400011C0408151810281138148175907E0F092
:101450004817590799F4109761F012960C93129758
:1014600013961C933296CF01DF91CF911F910F916C
:1014700008950093D8021093D902F4CF21153105B5
:1014800051F04217530738F0A901DB019A01BD0161
:10149000DF01F801C1CFEF01F9CF9093D90280931A
:1014A000D802CDCFFE01E20FF31F8193919322501A
:1014B000310939832883D7CF2091D6023091D702C2
:1014C000232B41F420910201309103013093D70284
:1014D0002093D602209100013091010121153105A0
:1014E00041F42DB73EB74091040150910501241BF2
:1014F000350BE091D602F091D702E217F307A0F482
:101500002E1B3F0B2817390778F0AC014E5F5F4F59
:101510002417350748F04E0F5F1F5093D7024093B2
:10152000D602819391939FCFF0E0E0E09CCFCF93E0
:10153000DF930097E9F0FC01329713821282A091A9
:10154000D802B091D902ED0130E020E01097A1F46B
:1015500020813181820F931F2091D6023091D702D2
:101560002817390709F061C0F093D702E093D6023B
:10157000DF91CF910895EA01CE17DF07E8F54A81A0
:101580005B819E0141155105B1F7E901FB83EA83B7
:1015900049915991C40FD51FEC17FD0761F4808163
:1015A00091810296840F951FE90199838883828136
:1015B00093819B838A83F0E0E0E012968D919C9169
:1015C00013970097B9F52D913C911197CD01029693
:1015D000820F931F2091D6023091D7022817390726
:1015E00039F6309751F51092D9021092D802B09383
:1015F000D702A093D602BCCFD383C283408151814E
:10160000840F951FC817D90761F44E5F5F4F88811B
:101610009981480F591F518340838A819B8193830D
:1016200082832115310509F0B0CFF093D902E09300
:10163000D8029ECFFD01DC01C0CF13821282D7CF2A
:10164000AEE0B0E0E6E2FBE00C94CC090D891E8927
:101650008F89988D26E02C831A83098397FF02C017
:1016600080E090E801979E838D83AE01455E5F4FD9
:10167000698D7A8DCE0101960E94500B4D815E815D
:1016800057FD0AC02F813885421753070CF49A0181
:10169000020F131FF80110822E96E4E00C94E80963
:1016A000ABE0B0E0E6E5FBE00C94BE097C013B0159
:1016B0008A01FC0117821682838181FFC8C1CE0195
:1016C00001965C01F7019381F30193FD859193FFEE
:1016D00081913F01882309F453C1853239F493FD88
:1016E000859193FF81913F01853229F4B70190E004
:1016F0000E94400DE7CF912C212C312CFFE1F315F6
:1017000038F08B3211F190F4803209F1833229F1F3
:1017100037FC3CC020ED280F2A3050F536FE20C0A3
:101720008AE0989E200D1124922E06C08D3291F0F1
:10173000803371F7689430F8F30193FD859193FF3E
:1017400081913F018111DACF21C0689431F868940A
:1017500032F8F2CF689433F8EFCF689434F8ECCFD6
:10176000EAE02E9E200D1124222E689435F8E4CF55
:101770008E3229F436FC04C1689436F8DDCF8C36FD
:1017800019F4689437F8D8CF8836B1F2982F9F7D36
:1017900095549330E0F08336A1F18337C1F183355E
:1017A00009F063C02801F2E04F0E511CF801C0801F
:1017B000D180692D70E036FC02C06FEF7FEFC6016B
:1017C0000E942A0D4C01689437F882010AC00C5F10
:1017D0001F4FFFE3F98388248394912C6501E894DB
:1017E00037F833FE2DC0522C8114910471F5552029
:1017F00009F468CFB70180E290E00E94400D5A944E
:10180000F6CFF801808189830E5F1F4FE4CF280156
:10181000F2E04F0E511CF801C080D180692D70E0BC
:1018200036FC02C06FEF7FEFC6010E94350D4C0100
:101830008201D5CFB70180E290E00E94400D2A944A
:101840002814190409F0B0F7CECFF60137FC8591C2
:1018500037FE81916F01B70190E00E94400D511059
:101860005A94F1E08F1A9108BFCF843619F0893667
:1018700009F077C0F80137FE6BC060817181828109
:1018800093810C5F1F4FF32DFF763F2E97FF09C00A
:1018900090958095709561957F4F8F4F9F4F68947D
:1018A00037F82AE030E0A5010E94700DC82ECA1852
:1018B0008C2C432C36FE0CC0E89440F8C91440F43C
:1018C00034FE05C032FC03C0F32DFE7E4F2E892C62
:1018D00044FE95C0FE01EC0DF11D8081803309F0BE
:1018E00087C0242D297E422E842D8870582E43FCDB
:1018F00095C040FE8FC09C2C821418F42C0C922CA6
:10190000981844FE91C0B70180E390E00E94400D1A
:1019100042FE09C088E790E041FE02C088E590E001
:10192000B7010E94400DC91408F48AC0CA94D12C92
:101930009FEFC91AD90ACA0CDB1CF60182916F010C
:10194000B70190E00E94400DAC14BD04B1F74FCF39
:1019500060817181072E000C880B990B0E5F1F4F61
:1019600092CFD32CE894D4F82AE030E0853739F1CF
:10197000232D297FD22E8F3601F148F48835A9F026
:10198000F701868197812B96E2E10C94DA09803782
:1019900049F08837A9F7D4FE02C06894D2F820E154
:1019A00030E00DC06894D4F8F6CF34FE03C0822F27
:1019B0008660D82E20E132E002C028E030E0F80155
:1019C000D7FE0FC060817181828193810C5F1F4FB0
:1019D000A5010E94700DC82ECA183D2CE89437F856
:1019E00067CF6081718190E080E00E5F1F4FF0CF84
:1019F00042FC02C0839478CF8394839475CF842D66
:101A0000867809F471CFF6CFB70180E290E00E94AA
:101A1000400D83948214C0F3512C73CF522C58186C
:101A2000821408F46ECFF8CF842D867809F47BCF2A
:101A30008BE241FE80E247FC8DE2B70190E071CF7E
:101A4000B70180E390E00E94400D9A946CCF8FEF35
:101A50009FEF99CFFC010590615070400110D8F7BD
:101A6000809590958E0F9F1F0895FC0161507040E6
:101A700001900110D8F7809590958E0F9F1F0895C3
:101A80000F931F93CF93DF93182F092FEB018B81B7
:101A900081FD09C01FEF0FEF812F902FDF91CF91B4
:101AA0001F910F91089582FF14C02E813F818C8178
:101AB0009D81281739073CF4E881F981CF0101960F
:101AC0009983888310838E819F8101969F838E8363
:101AD000E3CFE885F985812F0995892BA1F3DACF2A
:101AE000FA01AA27283051F1203181F1E8946F934F
:101AF0006E7F6E5F7F4F8F4F9F4FAF4FB1E03ED0F5
:101B0000B4E03CD0670F781F891F9A1FA11D680F92
:101B1000791F8A1F911DA11D6A0F711D811D911DC5
:101B2000A11D20D009F468943F912AE0269F11243A
:101B30003019305D3193DEF6CF010895462F47709E
:101B4000405D4193B3E00FD0C9F7F6CF462F4F70F9
:101B5000405D4A3318F0495D31FD4052419302D057
:101B6000A9F7EACFB4E0A6959795879577956795FD
:101B7000BA95C9F700976105710508959B01AC01FD
:101B80000A2E06945795479537952795BA95C9F724
:101B9000620F731F841F951FA01D0895F894FFCF37
:101BA0000000DA028000000000009501F50022012B
:101BB000E201530131014501000000000604D90390
:101BC0003504AF03D203BF03B0030D0A006E6F7775
:101BD0003D253034642D253032642D25303264208B
:101BE000253032643A253032643A2530326400724E
:101BF000756E6E696E670073746F707065640072E5
:081C00007463206661696C0049
:00000001FF
