:100000000C945C000C9479000C9479000C947900A9
:100010000C9479000C9479000C9479000C9479007C
:100020000C9479000C9479000C9479000C9479006C
:100030000C9479000C9479000C9479000C9479005C
:100040000C940B010C9479000C9479000C947900B9
:100050000C9479000C9479000C9479000C9479003C
:100060000C9479000C947900000000080002010053
:100070000003040700000000000000000000000072
:10008000250028002B0000000000240027002A0083
:10009000040404040404040402020202020203032E
:1000A0000303030301020408102040800102040836
:1000B000102001020408102011241FBECFEFD8E049
:1000C000DEBFCDBF11E0A0E0B1E0E8E3F4E002C0A4
:1000D00005900D92AA32B107D9F721E0AAE2B1E06A
:1000E00001C01D92A333B207E1F70E9455010C94A1
:1000F0001A020C94000090E0FC01EC55FF4F249193
:1001000080579F4FFC018491882399F090E0880FDD
:10011000991FFC01EA57FF4FA591B491FC01E458E7
:10012000FF4F859194918FB7F894EC91E22BEC936B
:100130008FBF089590E0FC01E859FF4F2491FC0126
:10014000EC55FF4F3491FC01E057FF4FE491EE2353
:10015000C9F0222339F0233001F1A8F4213019F13C
:10016000223029F1F0E0EE0FFF1FE458FF4FA59178
:10017000B4918FB7F894EC91611126C030953E236D
:100180003C938FBF08952730A9F02830C9F0243060
:1001900049F7809180008F7D03C0809180008F7728
:1001A00080938000DFCF84B58F7784BDDBCF84B5AB
:1001B0008F7DFBCF8091B0008F778093B000D2CF3E
:1001C0008091B0008F7DF9CF3E2BDACF3FB7F89406
:1001D00080912F0190913001A0913101B0913201B5
:1001E00026B5A89B05C02F3F19F00196A11DB11D92
:1001F0003FBFBA2FA92F982F8827BC01CD01620FCE
:10020000711D811D911D42E0660F771F881F991F88
:100210004A95D1F708951F920F920FB60F921124AD
:100220002F933F938F939F93AF93BF9380912B0115
:1002300090912C01A0912D01B0912E0130912A01B5
:1002400023E0230F2D3758F50196A11DB11D2093F2
:100250002A0180932B0190932C01A0932D01B09340
:100260002E0180912F0190913001A0913101B09128
:1002700032010196A11DB11D80932F019093300191
:10028000A0933101B0933201BF91AF919F918F91B3
:100290003F912F910F900FBE0F901F90189526E859
:1002A000230F0296A11DB11DD2CF789484B5826030
:1002B00084BD84B5816084BD85B5826085BD85B50A
:1002C000816085BD80916E00816080936E00109288
:1002D0008100809181008260809381008091810003
:1002E0008160809381008091800081608093800094
:1002F0008091B10084608093B1008091B0008160F2
:100300008093B00080917A00846080937A0080911D
:100310007A00826080937A0080917A008160809375
:100320007A0080917A00806880937A001092C100F0
:1003300000E011E0C2E08C2F0E947B00F801819167
:100340008F0161E0811160E08C2F0E949A00CF5FE5
:10035000C93089F70EE011E0C7E0D1E089910E9431
:100360007B000C171D07D1F7C9E08C2F0E947B0082
:1003700061E08C2F0E949A00CF5FCD30B1F730E062
:10038000C32E30E0D32E2EE0E22E21E0F22EC9E083
:1003900097E0A92E91E0B92E10E000E0F5018191DF
:1003A0005F0161E0F701E00FF11F9081911101C041
:1003B00060E00E949A000F5F1F4F0730110571F730
:1003C00060E08C2F0E949A000E94E6002B013C0105
:1003D00083E0882E912CA12CB12C0E94E600641998
:1003E000750986099709683E734081059105A8F350
:1003F000F1E08F1A9108A108B10828EE420E23E01F
:10040000521E611C711C81149104A104B10429F7CE
:1004100061E08C2F0E949A00CF5FF7E0EF0EF11C95
:10042000CD3009F0B5CFC114D10409F4ACCF0E948E
:080430000000A9CFF894FFCFF2
:10043800000101000000000E0F101112130D000141
:10044800010000000001010001010001010101019A
:0A0458000000010001010000010195
:00000001FF
