:100000000C94A3000C947B040C9454040C94CB002B
:100010000C94CB000C94CB000C94CB000C94CB0034
:100020000C94CB000C94CB000C94CB000C94CB0024
:100030000C94CB000C94CB000C94CB000C94CB0014
:100040000C940A040C94CB000C94C8040C94A204E5
:100050000C94CB000C94CB000C94CB000C94CB00F4
:100060000C94CB000C94CB0008000000BE922449F5
:10007000123EABAAAA2ABECDCCCC4C3E00000080DA
:10008000BEABAAAAAA3E00000000BF000000803F4D
:100090000000000000084178D3BB4387D1133D190D
:1000A0000E3CC3BD4282AD2B3E68EC8276BED98F3A
:1000B000E1A93E4C80EFFFBE01C4FF7F3F0000007E
:1000C000000007634236B79BD8A71A39685618AEA6
:1000D000BAAB558C1D3CB7CC5763BD6DEDFD753E7D
:1000E000F6177231BF000000803F000000002500BD
:1000F00028002B0000000000240027002A00000038
:10010000000023002600290004040404040404045D
:1001100002020202020203030303030301020408B2
:100120001020408001020408102001020408102061
:1001300000000008000201000003040700000000A6
:1001400000000000A00611241FBECFEFD8E0DEBFE4
:10015000CDBF11E0A0E0B1E0E0E7F5E102C005901D
:100160000D92A635B107D9F721E0A6E5B1E001C0AF
:100170001D92AE3FB207E1F710E0C3EAD0E004C041
:100180002197FE010E94EF06C23AD107C9F70E94EB
:10019000FA040C94B60A0C94000090E0FC01E05DB7
:1001A000FE4F2491FC01E45EFE4F3491FC01E85FB8
:1001B000FE4FE491EE23C1F1222339F02330E9F020
:1001C00090F4213001F1223011F1F0E0EE0FFF1F29
:1001D000E250FF4FA591B491EC91E32381E090E0D0
:1001E00029F580E008952730A9F02830C9F024309F
:1001F00061F7809180008F7D03C0809180008F77B0
:1002000080938000E2CF84B58F7784BDDECF84B544
:100210008F7DFBCF8091B0008F778093B000D5CFDA
:100220008091B0008F7DF9CF80E090E00895CF936A
:10023000DF9390E0FC01E45EFE4F2491885F9E4FC7
:10024000FC0184918823C9F090E0880F991FFC017C
:10025000EC50FF4FA591B491FC01E651FF4FC591C1
:10026000D49161110DC09FB7F8948C912095822391
:100270008C938881282328839FBFDF91CF91089595
:10028000623051F49FB7F8943C91822F809583237C
:100290008C93E8812E2BEFCF8FB7F894EC912E2B17
:1002A0002C938FBFEACF8E50806480937C00809126
:1002B0007A00806480937A0080917A0086FDFCCF7A
:1002C000809178009091790008953FB7F8948091DB
:1002D0005D0190915E01A0915F01B091600126B532
:1002E000A89B05C02F3F19F00196A11DB11D3FBF6E
:1002F000BA2FA92F982F8827BC01CD01620F711D3D
:10030000811D911D42E0660F771F881F991F4A9536
:10031000D1F708950895AF92BF92CF92DF92EF92F6
:10032000FF920F931F93CF93DF936C017B018B019F
:10033000040F151FEB015E01AE18BF08C017D107EF
:1003400059F06991D601ED91FC910190F081E02D79
:10035000C6010995892B79F7C501DF91CF911F91CE
:100360000F91FF90EF90DF90CF90BF90AF900895E6
:10037000FC01538D448D252F30E0842F90E0821BAB
:10038000930B541710F0CF96089501970895FC0130
:10039000918D828D981761F0A28DAE0FBF2FB11D88
:1003A0005D968C91928D9F5F9F73928F90E00895E0
:1003B0008FEF9FEF0895FC01918D828D981731F09A
:1003C000828DE80FF11D858D90E008958FEF9FEFEE
:1003D0000895FC01918D228D892F90E0805C9F4FC4
:1003E000821B91098F739927089581E691E00E94FD
:1003F000E90121E0892B09F420E0822F089580E0B3
:1004000090E0892B29F00E94F50181110C940000E5
:100410000895FC01A48DA80FB92FB11DA35ABF4F99
:100420002C91848D90E001968F739927848FA689F3
:10043000B7892C93A089B1898C91837080648C9347
:10044000938D848D981306C00288F389E02D8081F6
:100450008F7D80830895EF92FF920F931F93CF9328
:10046000DF93EC0181E0888F9B8D8C8D98131AC0EF
:10047000E889F989808185FF15C09FB7F894EE89D6
:10048000FF896083E889F989808183708064808333
:100490009FBF81E090E0DF91CF911F910F91FF907E
:1004A000EF900895F62E0B8D10E00F5F1F4F0F7326
:1004B0001127E02E8C8D8E110CC00FB607FCFACFE1
:1004C000E889F989808185FFF5CFCE010E94090274
:1004D000F1CFEB8DEC0FFD2FF11DE35AFF4FF082B2
:1004E0009FB7F8940B8FEA89FB8980818062CFCF18
:1004F000CF93DF93EC01888D8823B9F0AA89BB895B
:10050000E889F9898C9185FD03C0808186FD0DC045
:100510000FB607FCF7CF8C9185FFF2CF808185FF66
:10052000EDCFCE010E940902E9CFDF91CF9108956E
:1005300083E00E94CD00019751F480915601909183
:100540005701019690935701809356010895809129
:100550005601909157010197F5CFFC0101900020C1
:10056000E9F73197AF01481B590BBC0181E691E0D7
:100570000C948B018F929F92AF92BF920F931F9317
:10058000CF93DF93CDB7DEB7A1970FB6F894DEBF58
:100590000FBECDBF19A2423008F44AE08E010F5DB4
:1005A0001F4F842E912CB12CA12CA50194010E94E7
:1005B000CD06E62FB901CA01EA30F4F4E05DD801B6
:1005C000EE938D01232B242B252B79F790E080E0EF
:1005D000109719F0CD010E94AD02A1960FB6F894C4
:1005E000DEBF0FBECDBFDF91CF911F910F91BF90A6
:1005F000AF909F908F900895E95CE1CFCF92DF920A
:10060000EF92FF92CF93DF936C01990FEE08FF08F2
:10061000F7FE19C06DE281E691E00E942B02EC0129
:1006200066277727CB016C197D098E099F094AE05F
:100630000E94BA028C0F9D1FDF91CF91FF90EF9027
:10064000DF90CF9008954AE0C701B601DF91CF91C6
:10065000FF90EF90DF90CF900C94BA024F925F9290
:100660006F927F928F929F92AF92BF92CF92DF92C2
:10067000EF92FF920F931F93CF936B017C01742E27
:10068000AC019B010E94CC09882399F086E191E09E
:10069000CF911F910F91FF90EF90DF90CF90BF907F
:1006A000AF909F908F907F906F905F904F900C9441
:1006B000AD0246015701E894B7F82FEF3FEF4FE73F
:1006C0005FE7C501B4010E94CC0981110DC02FEF75
:1006D0003FEF4FE75FE7C501B4010E9462071816BC
:1006E0001CF48AE191E0D4CF2FEF3FEF4FE75FE4B6
:1006F000C701B6010E94BA0818161CF48EE191E0F9
:10070000C7CF2FEF3FEF4FE75FECC701B6010E9465
:10071000620787FDF3CF20E030E0A901C701B601F1
:100720000E94620710E000E087FF0AC06DE281E6E8
:1007300091E00E942B028C01F7FAF094F7F8F09404
:10074000C0E060E070E080E09FE37C1641F020E0D4
:1007500030E040E251E40E946707CF5FF6CFA70187
:1007600096010E94F6062B013C010E94D9074B011D
:100770005C014AE00E94BA027C01E00EF11ECC232B
:10078000C1F1C501B4010E9408089B01AC01C3017D
:10079000B2010E94F5064B015C016EE281E691E038
:1007A0000E942B02E80EF91EC15018F120E030E043
:1007B00040E251E4C501B4010E940F092B013C0144
:1007C0000E94D9074B01B12CA12C4AE0C501B4010C
:1007D0000E94BA02E80EF91EC501B4010E94080881
:1007E0009B01AC01C301B2010E94F5064B015C0103
:1007F000DBCFC701CF911F910F91FF90EF90DF905A
:10080000CF90BF90AF909F908F907F906F905F90B0
:100810004F9008951F920F920FB60F9211242F93AD
:100820003F938F939F93AF93BF9380915901909182
:100830005A01A0915B01B0915C013091580123E015
:10084000230F2D3758F50196A11DB11D2093580196
:100850008093590190935A01A0935B01B0935C017E
:1008600080915D0190915E01A0915F01B091600166
:100870000196A11DB11D80935D0190935E01A0932F
:100880005F01B0936001BF91AF919F918F913F91B4
:100890002F910F900FBE0F901F90189526E8230FF1
:1008A0000296A11DB11DD2CF1F920F920FB60F92CB
:1008B00011242F933F934F935F936F937F938F9365
:1008C0009F93AF93BF93EF93FF93E0910201F09159
:1008D00003010995FF91EF91BF91AF919F918F9186
:1008E0007F916F915F914F913F912F910F900FBE2C
:1008F0000F901F9018951F920F920FB60F92112410
:100900002F933F934F935F936F937F938F939F9317
:10091000AF93BF93EF93FF93E0910001F09101013A
:100920000995FF91EF91BF91AF919F918F917F9129
:100930006F915F914F913F912F910F900FBE0F904C
:100940001F9018951F920F920FB60F9211242F939C
:100950003F934F935F936F937F938F939F93AF9347
:10096000BF93EF93FF9381E691E00E940902FF910C
:10097000EF91BF91AF919F918F917F916F915F9117
:100980004F913F912F910F900FBE0F901F90189590
:100990001F920F920FB60F9211242F938F939F9354
:1009A000EF93FF93E0917101F09172018081E091EA
:1009B0007701F091780182FD1BC0908180917A01CE
:1009C0008F5F8F7320917B01821741F0E0917A0154
:1009D000F0E0EF59FE4F958F80937A01FF91EF91F0
:1009E0009F918F912F910F900FBE0F901F90189590
:1009F0008081F4CF789484B5826084BD84B58160B1
:100A000084BD85B5826085BD85B5816085BD8091D9
:100A10006E00816080936E00109281008091810051
:100A20008260809381008091810081608093810049
:100A3000809180008160809380008091B10084600B
:100A40008093B1008091B00081608093B00080916C
:100A50007A00846080937A0080917A00826080932B
:100A60007A0080917A00816080937A0080917A0088
:100A7000806880937A001092C100E0917101F0913A
:100A8000720182E08083E0916D01F0916E0110822D
:100A9000E0916F01F091700180E180831092790103
:100AA000E0917501F091760186E08083E091730119
:100AB000F0917401808180618083E0917301F091F5
:100AC0007401808188608083E0917301F0917401EA
:100AD000808180688083E0917301F091740180814E
:100AE0008F7D808360E087E00E94170162E086E0EE
:100AF0000E94170160E085E00E94170162E084E037
:100B00000E94170160E082E00E94170160E083E02C
:100B10000E94170188E992E09093010180930001FF
:100B2000809169008C7F826080936900E89AC0E0C0
:100B3000D0E08EE00E945301BC01990F880B990B05
:100B40000E940A0820E030E040E85AE30E940F09C2
:100B500020E030E040EA50E40E940F096B017C0184
:100B600020E030E04AEF54E40E940F094B015C01A1
:100B700020E030E040EA50E4C701B6010E94670778
:100B80009B01AC0160E070E080E89FE30E94F50605
:100B90009B01AC01C501B4010E9467079B01AC0138
:100BA00067E678EB84E798E40E9467072EE63BED62
:100BB00046EB5FE30E947C096B017C018FE00E94A1
:100BC0005301BC01990F880B990B0E940A089B01E5
:100BD000AC0160E070EC8FE794E40E94670720E0CE
:100BE00030E040E85FE30E94F5069B01AC0160E065
:100BF00070E080E89FE30E9467070E94C7084B01EE
:100C00005C0182E291E00E94AD0240E0C701B601C2
:100C10000E942E0387E291E00E94AD0220E030EEB8
:100C200046E755E4C501B4010E9467072FE03FEC99
:100C30004BE55BE30E94F6069B01AC0160E070E0CF
:100C400080E89FE30E94670723E333E948E853E421
:100C50000E94F50641E00E942E038EE291E00E9480
:100C6000AD0280E10E9453010E94FE0282E391E006
:100C70000E94AD0281E10E9453010E94FE0286E3C0
:100C800091E00E94AD0287E00E94CD000E94FE022A
:100C90008CE391E00E94AD0286E00E94CD000E94AC
:100CA000FE0282E491E00E94AD0285E00E94CD0048
:100CB0000E94FE0287E491E00E94AD0280915601FD
:100CC000909157010E94FE028DE491E00E94AD02D6
:100CD00084E00E94CD000E94FE0282E591E00E9425
:100CE000AD020E9465014B015C0184E6C82ED12C47
:100CF000E12CF12C0E946501681979098A099B0988
:100D0000683E734081059105A8F321E0C21AD1081D
:100D1000E108F10888EE880E83E0981EA11CB11C42
:100D2000C114D104E104F10429F7209709F401CF9B
:100D30000E94F501882309F4FCCE0E940000F9CE40
:100D4000E1E6F1E01382128288EE93E0A0E0B0E0E9
:100D500084839583A683B78388E091E09183808321
:100D600085EC90E09587848784EC90E09787868770
:100D700080EC90E0918B808B81EC90E0938B828B68
:100D800082EC90E0958B848B86EC90E0978B868B41
:100D9000118E128E138E148E0895A1E21A2EAA1BA4
:100DA000BB1BFD010DC0AA1FBB1FEE1FFF1FA2171B
:100DB000B307E407F50720F0A21BB30BE40BF50B18
:100DC000661F771F881F991F1A9469F760957095A1
:100DD000809590959B01AC01BD01CF010895EE0F68
:100DE000FF1F0590F491E02D09945058BB27AA27C6
:100DF0000E940D070C9480080E94720838F00E942F
:100E0000790820F039F49F3F19F426F40C946F0808
:100E10000EF4E095E7FB0C946908E92F0E94910815
:100E200058F3BA17620773078407950720F079F41F
:100E3000A6F50C94B3080EF4E0950B2EBA2FA02D56
:100E40000B01B90190010C01CA01A0011124FF2777
:100E5000591B99F0593F50F4503E68F11A16F04072
:100E6000A22F232F342F4427585FF3CF4695379571
:100E70002795A795F0405395C9F77EF41F16BA0B36
:100E8000620B730B840BBAF09150A1F0FF0FBB1FE4
:100E9000661F771F881FC2F70EC0BA0F621F731F2D
:100EA000841F48F4879577956795B795F7959E3F8A
:100EB00008F0B0CF9395880F08F09927EE0F97951B
:100EC000879508950E94450808F481E008950E94DE
:100ED0007B070C9480080E94790858F00E947208E1
:100EE00040F029F45F3F29F00C94690851110C94EB
:100EF000B4080C946F080E94910868F39923B1F329
:100F0000552391F3951B550BBB27AA27621773072F
:100F1000840738F09F5F5F4F220F331F441FAA1FC3
:100F2000A9F335D00E2E3AF0E0E832D0915050407F
:100F3000E695001CCAF72BD0FE2F29D0660F771F2D
:100F4000881FBB1F261737074807AB07B0E809F013
:100F5000BB0B802DBF01FF2793585F4F3AF09E3F98
:100F6000510578F00C9469080C94B4085F3FE4F3E1
:100F7000983ED4F3869577956795B795F7959F5FDB
:100F8000C9F7880F911D9695879597F90895E1E027
:100F9000660F771F881FBB1F621773078407BA0786
:100FA00020F0621B730B840BBA0BEE1F88F7E095E1
:100FB00008950E94990888F09F5798F0B92F9927B3
:100FC000B751B0F0E1F0660F771F881F991F1AF034
:100FD000BA95C9F714C0B13091F00E94B308B1E0DE
:100FE00008950C94B308672F782F8827B85F39F0DD
:100FF000B93FCCF3869577956795B395D9F73EF4CD
:1010000090958095709561957F4F8F4F9F4F089574
:10101000E89409C097FB3EF4909580957095619592
:101020007F4F8F4F9F4F9923A9F0F92F96E9BB2748
:101030009395F695879577956795B795F111F8CFC4
:10104000FAF4BB0F11F460FF1BC06F5F7F4F8F4F2F
:101050009F4F16C0882311F096E911C0772321F025
:101060009EE8872F762F05C0662371F096E8862FBD
:1010700070E060E02AF09A95660F771F881FDAF714
:10108000880F9695879597F90895990F0008550F41
:10109000AA0BE0E8FEEF16161706E807F907C0F0FE
:1010A00012161306E407F50798F0621B730B840B06
:1010B000950B39F40A2661F0232B242B252B21F4E0
:1010C00008950A2609F4A140A6958FEF811D811D80
:1010D000089597F99F6780E870E060E008959FEFBA
:1010E00080EC089500240A941616170618060906BF
:1010F000089500240A94121613061406050608958E
:10110000092E0394000C11F4882352F0BB0F40F415
:10111000BF2B11F460FF04C06F5F7F4F8F4F9F4F55
:10112000089557FD9058440F551F59F05F3F71F0D7
:101130004795880F97FB991F61F09F3F79F087953E
:101140000895121613061406551FF2CF4695F1DFC7
:1011500008C0161617061806991FF1CF8695710557
:10116000610508940895E894BB2766277727CB018B
:1011700097F908950E94450808F48FEF089516F036
:101180000C940B0A0C946F0868940C9469080E94E4
:101190009908A8F39923C1F3AEF3DF93CF931F937C
:1011A0000F93FF92C92FDD2788232AF02197660F1E
:1011B000771F881FDAF720E030E040E85FEB9FE31D
:1011C000883920F0803E38F021968F770E94F6060D
:1011D000E8E6F0E004C00E94F606E5E9F0E00E94CF
:1011E000190A8B01BE01EC01FB2E6F577109759531
:1011F000771F880B990B0E940A0828E132E741E328
:101200005FE30E942209AF2D9801AE01FF900F917C
:101210001F91CF91DF910E940D070C9480080E94CE
:1012200022090C9480080E94720838F00E94790804
:1012300020F0952311F00C9469080C946F08112488
:101240000C94B4080E94910870F3959FC1F3950F18
:1012500050E0551F629FF001729FBB27F00DB11D3A
:10126000639FAA27F00DB11DAA1F649F6627B00DCA
:10127000A11D661F829F2227B00DA11D621F739FB3
:10128000B00DA11D621F839FA00D611D221F749FC1
:101290003327A00D611D231F849F600D211D822F08
:1012A000762F6A2F11249F5750409AF0F1F088232F
:1012B0004AF0EE0FFF1FBB1F661F771F881F91505C
:1012C0005040A9F79E3F510580F00C9469080C949A
:1012D000B4085F3FE4F3983ED4F38695779567951D
:1012E000B795F795E7959F5FC1F7FE2B880F911D86
:1012F0009695879597F90895FA01EE0FFF1F30969E
:1013000021053105A1F16115710561F48038BFE354
:101310009B0749F168949038810561F08038BFEFF0
:101320009B0741F099234AF5FF3FE105310521056F
:1013300019F1E8940894E795D901AA2329F4AB2F71
:10134000BE2FF85FD0F310C0FF5F70F4A695E0F7F2
:10135000F73950F019F0FF3A38F49F779F930DD08A
:101360000F9007FC9058089546F00C946F0860E0C9
:1013700070E080E89FE308954FE79F775F934F9376
:101380003F932F930E94C7082F913F914F915F91F8
:101390000E940F090C94D9090E944508880B990BEB
:1013A000089529F416F00C9469080C94B3080C9471
:1013B0006F080E949908A8F39638A0F707F80F92D3
:1013C000E8942BE33AEA48EB5FE70E9425090F9285
:1013D0000F920F924DB75EB70F920E94820AE2EC15
:1013E000F0E00E94190A4F915F91EF91FF91E5950E
:1013F000EE1FFF1F49F0FE57E0684427EE0F441F21
:10140000FA95E1F74195550B0E944C0A0F9007FEA3
:101410000C94400A08959F3F31F0915020F4879535
:1014200077956795B795880F911D9695879597F94C
:101430000895DF93CF931F930F93FF92EF92DF9264
:101440007B018C01689406C0DA2EEF010E9422090C
:10145000FE01E894A5912591359145915591A6F30A
:10146000EF010E940D07FE019701A801DA9469F7C8
:10147000DF90EF90FF900F911F91CF91DF91089532
:101480009B01AC0160E070E080E89FE30C9467078B
:101490000C9469080C940B0A0E949908D8F39923BC
:1014A000C9F3940F511DA3F39150504094F059F09B
:1014B000882332F0660F771F881F91505040C1F784
:1014C0009E3F51052CF7880F911D9695879597F9AA
:1014D00008955F3FACF0983E9CF0BB2786957795CA
:1014E0006795B79508F4B1609395C1F7BB0F58F7AE
:1014F00011F460FFE8CF6F5F7F4F8F4F9F4FE3CFB7
:101500000C94B408FA01DC01AA0FBB1F9B01AC01CB
:10151000BF5728F4222733274427507820C0B751DB
:1015200090F4AB2F0024469537952795011CA39581
:10153000D2F3002071F0220F331F441FB395DAF36A
:101540000ED00C94F50661307105A0E88A07B94603
:1015500030F49B01AC016627772788279078309676
:1015600021F020833183428353830895F894FFCF81
:101570008A018A01000000002B028B01B801780269
:10158000E901C701DB016E616E00696E66006F766E
:1015900066006C75783D002074656D703D002078A4
:1015A0003D0020793D00207069723D002073656C1C
:1015B0003D0020646F3D0020656E633D0020737721
:0615C0003D000D0A0000D1
:00000001FF
