:100000000C9462000C948A000C948A000C948A0070
:100010000C948A000C948A000C948A000C948A0038
:100020000C948A000C948A000C948A000C948A0028
:100030000C948A000C948A000C948A000C948A0018
:100040000C9457020C948A000C94C7020C94A102E1
:100050000C948A000C948A000C948A000C948A00F8
:100060000C948A000C948A000000000024002700F1
:100070002A000000000023002600290000000000E4
:10008000250028002B0004040404040404040202D4
:100090000202020203030303030301020408102007
:1000A0004080010204081020010204081020000012
:1000B0000008000201000003040700000000000027
:1000C0000000DC0411241FBECFEFD8E0DEBFCDBF9F
:1000D00011E0A0E0B1E0EEEDFEE002C005900D926F
:1000E000A632B107D9F721E0A6E2B1E001C01D9226
:1000F000AC3CB207E1F710E0C2E6D0E004C02197C3
:10010000FE010E942B05C136D107C9F70E943E03AC
:100110000C946D070C940000E7EBF0E02491E3EA07
:10012000F0E09491EFE8F0E0E491EE23C9F02223AF
:1001300039F0233001F1A8F4213019F1223029F1EE
:10014000F0E0EE0FFF1FE458FF4FA591B4912FB7D9
:10015000F894EC91811126C090959E239C932FBF1B
:1001600008952730A9F02830C9F0243049F72091AC
:1001700080002F7D03C0209180002F772093800086
:10018000DFCF24B52F7724BDDBCF24B52F7DFBCF68
:100190002091B0002F772093B000D2CF2091B000F3
:1001A0002F7DF9CF9E2BDACF3FB7F89480912B01AA
:1001B00090912C01A0912D01B0912E0126B5A89B04
:1001C00005C02F3F19F00196A11DB11D3FBFBA2FE9
:1001D000A92F982F8827BC01CD01620F711D811DA9
:1001E000911D42E0660F771F881F991F4A95D1F72E
:1001F0000895AF92BF92CF92DF92EF92FF920F934A
:100200001F93CF93DF936C017B018B01040F151FAC
:10021000EB015E01AE18BF08C017D10759F0699114
:10022000D601ED91FC910190F081E02DC601099578
:10023000892B79F7C501DF91CF911F910F91FF9025
:10024000EF90DF90CF90BF90AF900895FC01538D59
:10025000448D252F30E0842F90E0821B930B5417A0
:1002600010F0CF96089501970895FC01918D828D2D
:10027000981761F0A28DAE0FBF2FB11D5D968C91C6
:10028000928D9F5F9F73928F90E008958FEF9FEF05
:100290000895FC01918D828D981731F0828DE80FC1
:1002A000F11D858D90E008958FEF9FEF0895FC017B
:1002B000918D228D892F90E0805C9F4F821B910948
:1002C0008F73992708958FE291E00E94570121E0F2
:1002D000892B09F420E0822F089580E090E0892B9B
:1002E00029F00E94630181110C9400000895FC0123
:1002F000A48DA80FB92FB11DA35ABF4F2C91848D87
:1003000090E001968F739927848FA689B7892C93E3
:10031000A089B1898C91837080648C93938D848D36
:10032000981306C00288F389E02D80818F7D808339
:100330000895EF92FF920F931F93CF93DF93EC01F9
:1003400081E0888F9B8D8C8D98131AC0E889F9897C
:10035000808185FF15C09FB7F894EE89FF8960837F
:10036000E889F98980818370806480839FBF81E000
:1003700090E0DF91CF911F910F91FF90EF90089542
:10038000F62E0B8D10E00F5F1F4F0F731127E02E1D
:100390008C8D8E110CC00FB607FCFACFE889F98955
:1003A000808185FFF5CFCE010E947701F1CFEB8DE3
:1003B000EC0FFD2FF11DE35AFF4FF0829FB7F89429
:1003C0000B8FEA89FB8980818062CFCFCF93DF9347
:1003D000EC01888D8823B9F0AA89BB89E889F9895D
:1003E0008C9185FD03C0808186FD0DC00FB607FC92
:1003F000F7CF8C9185FFF2CF808185FFEDCFCE01C5
:100400000E947701E9CFDF91CF910895FC0101901F
:100410000020E9F73197AF01481B590BBC018FE26F
:1004200091E00C94F9008F929F92AF92BF920F933C
:100430001F93CF93DF93CDB7DEB7A1970FB6F89494
:10044000DEBF0FBECDBF19A2423008F44AE08E01D4
:100450000F5D1F4F842E912CB12CA12CA50194016E
:100460000E940905E62FB901CA01EA30F4F4E05D03
:10047000D801EE938D01232B242B252B79F790E0C7
:1004800080E0109719F0CD010E940602A1960FB6E8
:10049000F894DEBF0FBECDBFDF91CF911F910F91BA
:1004A000BF90AF909F908F900895E95CE1CF1F922D
:1004B0000F920FB60F9211242F933F938F939F9318
:1004C000AF93BF938091270190912801A0912901BA
:1004D000B0912A013091260123E0230F2D3758F5E2
:1004E0000196A11DB11D20932601809327019093B1
:1004F0002801A0932901B0932A0180912B019091AA
:100500002C01A0912D01B0912E010196A11DB11DCC
:1005100080932B0190932C01A0932D01B0932E0179
:10052000BF91AF919F918F913F912F910F900FBEEF
:100530000F901F90189526E8230F0296A11DB11D5C
:10054000D2CF1F920F920FB60F9211242F933F9389
:100550004F935F936F937F938F939F93AF93BF93CB
:10056000EF93FF938FE291E00E947701FF91EF916B
:10057000BF91AF919F918F917F916F915F914F91BB
:100580003F912F910F900FBE0F901F9018951F92C3
:100590000F920FB60F9211242F938F939F93EF9387
:1005A000FF93E0913F01F09140018081E09145018E
:1005B000F091460182FD1BC09081809148018F5FC0
:1005C0008F7320914901821741F0E0914801F0E0DA
:1005D000E15DFE4F958F80934801FF91EF919F91D0
:1005E0008F912F910F900FBE0F901F9018958081C3
:1005F000F4CFCF92DF92EF92FF920F931F93E82FE9
:10060000F92F05C0015011092109310961F19081CB
:1006100096239417B9F305C0015011092109310936
:1006200011F1908196239413F7CFC12CD12CE12C9A
:10063000F12C0AC08FEFC81AD80AE80AF80A0C157C
:100640001D052E053F0579F080818623841791F3DF
:100650006C2D7D2D8E2D9F2D1F910F91FF90EF9072
:10066000DF90CF90089560E070E080E090E01F910F
:100670000F91FF90EF90DF90CF900895789484B51C
:10068000826084BD84B5816084BD85B5826085BD8E
:1006900085B5816085BD80916E00816080936E001C
:1006A000109281008091810082608093810080910E
:1006B00081008160809381008091800081608093BF
:1006C00080008091B10084608093B1008091B0007F
:1006D00081608093B00080917A00846080937A007A
:1006E00080917A00826080937A0080917A008160A4
:1006F00080937A0080917A00806880937A001092CB
:10070000C100E0913F01F091400182E08083E091DF
:100710003B01F0913C011082E0913D01F0913E01DE
:1007200080E1808310924701E0914301F091440100
:1007300086E08083E0914101F091420180818061F7
:100740008083E0914101F091420180818860808343
:10075000E0914101F0914201808180688083E091C5
:100760004101F091420180818F7D8083E3EAF0E0D6
:100770002491EFE8F0E08491882399F090E0880FCD
:10078000991FFC01E859FF4FA591B491FC01E45871
:10079000FF4F859194918FB7F894EC91E22BEC93F5
:1007A0008FBFE4EAF0E0249150E9252E50E0352E89
:1007B000F10184918823C1F090E0880F991FFC011A
:1007C000E859FF4FA591B491FC01E458FF4FC59142
:1007D000D4913FB7F8949C91822F809598239C9355
:1007E0009881892388833FBFC3E0D0E023E2A22E13
:1007F000B12C30E0832E30E0932E80E00E948C00FC
:10080000CE010197F1F781E00E948C00C5010197AC
:10081000F1F780E00E948C00E4EAF0E06491F101DD
:100820008491E82FF0E0EE0FFF1FEE58FF4F859107
:10083000949100E315E720E030E0462F0E94F90292
:100840006B017C01C114D104E104F10439F0FFEF24
:10085000CF1ADF0AEF0AFF0A2FE0F22282E191E0CD
:100860000E940602C701B6010E94440620E030E063
:1008700048E652E40E94A3056B017C01AC019B0198
:100880000E9468078823C1F186E191E00E94060278
:1008900082E291E00E9406020E94D4002B013C01FA
:1008A00088ECC82ED12CE12CF12C0E94D4006419C4
:1008B000750986099709683E734081059105A8F37B
:1008C00081E0C81AD108E108F108E8EE4E0EE3E035
:1008D0005E1E611C711CC114D104E104F10429F7EE
:1008E0008114910409F489CF0E946301882309F4DB
:1008F00084CF0E94000081CF2FEF3FEF4FE75FE7EB
:10090000C701B6010E94680781110DC02FEF3FEFAC
:100910004FE75FE7C701B6010E949E0518161CF459
:100920008AE191E0B3CF2FEF3FEF4FE75FE4C701DC
:10093000B6010E94F60618161CF48EE191E0A6CFCF
:100940002FEF3FEF4FE75FECC701B6010E949E0516
:1009500087FDF3CF2DEC3CEC4CE45DE3C701B60121
:100960000E9432052B013C010E9415066B017C019F
:100970000E9444069B01AC01C301B2010E943105F3
:100980002B013C014AE0C701B6010E9413026EE24E
:100990008FE291E00E94990120E030E040E251E4D2
:1009A000C301B2010E94FB060E94150690E080E0A0
:1009B0004AE00E9413026CCFEFE2F1E01382128250
:1009C00088EE93E0A0E0B0E084839583A683B783AC
:1009D00084E091E09183808385EC90E09587848723
:1009E00084EC90E09787868780EC90E0918B808BF9
:1009F00081EC90E0938B828B82EC90E0958B848BE2
:100A000086EC90E0978B868B118E128E138E148E4F
:100A10000895A1E21A2EAA1BBB1BFD010DC0AA1F3F
:100A2000BB1FEE1FFF1FA217B307E407F50720F057
:100A3000A21BB30BE40BF50B661F771F881F991FD2
:100A40001A9469F760957095809590959B01AC011B
:100A5000BD01CF010895EE0FFF1F0590F491E02D29
:100A600009945058BB27AA270E9449050C94BC063C
:100A70000E94AE0638F00E94B50620F039F49F3F80
:100A800019F426F40C94AB060EF4E095E7FB0C94F5
:100A9000A506E92F0E94CD0658F3BA17620773071F
:100AA0008407950720F079F4A6F50C94EF060EF470
:100AB000E0950B2EBA2FA02D0B01B90190010C016E
:100AC000CA01A0011124FF27591B99F0593F50F486
:100AD000503E68F11A16F040A22F232F342F4427DE
:100AE000585FF3CF469537952795A795F0405395D6
:100AF000C9F77EF41F16BA0B620B730B840BBAF0A6
:100B00009150A1F0FF0FBB1F661F771F881FC2F710
:100B10000EC0BA0F621F731F841F48F48795779524
:100B20006795B795F7959E3F08F0B0CF9395880FDE
:100B300008F09927EE0F9795879508950E948106F2
:100B400008F481E008950E94B7050C94BC060E9449
:100B5000B50658F00E94AE0640F029F45F3F29F038
:100B60000C94A50651110C94F0060C94AB060E944F
:100B7000CD0668F39923B1F3552391F3951B550BDB
:100B8000BB27AA2762177307840738F09F5F5F4F60
:100B9000220F331F441FAA1FA9F335D00E2E3AF09F
:100BA000E0E832D091505040E695001CCAF72BD0B7
:100BB000FE2F29D0660F771F881FBB1F2617370708
:100BC0004807AB07B0E809F0BB0B802DBF01FF273A
:100BD00093585F4F3AF09E3F510578F00C94A5066C
:100BE0000C94F0065F3FE4F3983ED4F38695779536
:100BF0006795B795F7959F5FC9F7880F911D9695F3
:100C0000879597F90895E1E0660F771F881FBB1F4E
:100C1000621773078407BA0720F0621B730B840BFB
:100C2000BA0BEE1F88F7E09508950E94D50688F06C
:100C30009F5798F0B92F9927B751B0F0E1F0660FA0
:100C4000771F881F991F1AF0BA95C9F714C0B130E1
:100C500091F00E94EF06B1E008950C94EF06672F23
:100C6000782F8827B85F39F0B93FCCF38695779510
:100C70006795B395D9F73EF49095809570956195F9
:100C80007F4F8F4F9F4F0895E89409C097FB3EF424
:100C900090958095709561957F4F8F4F9F4F9923C9
:100CA000A9F0F92F96E9BB279395F6958795779547
:100CB0006795B795F111F8CFFAF4BB0F11F460FF07
:100CC0001BC06F5F7F4F8F4F9F4F16C0882311F05F
:100CD00096E911C0772321F09EE8872F762F05C073
:100CE000662371F096E8862F70E060E02AF09A950E
:100CF000660F771F881FDAF7880F9695879597F903
:100D00000895990F0008550FAA0BE0E8FEEF16169C
:100D10001706E807F907C0F012161306E407F507EF
:100D200098F0621B730B840B950B39F40A2661F063
:100D3000232B242B252B21F408950A2609F4A14006
:100D4000A6958FEF811D811D089597F99F6780E813
:100D500070E060E008959FEF80EC089500240A940D
:100D60001616170618060906089500240A94121686
:100D70001306140605060895092E0394000C11F4B9
:100D8000882352F0BB0F40F4BF2B11F460FF04C066
:100D90006F5F7F4F8F4F9F4F089557FD9058440FBF
:100DA000551F59F05F3F71F04795880F97FB991FCA
:100DB00061F09F3F79F08795089512161306140687
:100DC000551FF2CF4695F1DF08C016161706180614
:100DD000991FF1CF86957105610508940895E894EF
:100DE000BB2766277727CB0197F908950E948106D4
:100DF00008F48FEF08950E940E070C94BC060E9421
:100E0000AE0638F00E94B50620F0952311F00C9440
:100E1000A5060C94AB0611240C94F0060E94CD0696
:100E200070F3959FC1F3950F50E0551F629FF0013D
:100E3000729FBB27F00DB11D639FAA27F00DB11D56
:100E4000AA1F649F6627B00DA11D661F829F2227DF
:100E5000B00DA11D621F739FB00DA11D621F839F66
:100E6000A00D611D221F749F3327A00D611D231F3C
:100E7000849F600D211D822F762F6A2F11249F578A
:100E800050409AF0F1F088234AF0EE0FFF1FBB1F8D
:100E9000661F771F881F91505040A9F79E3F51054C
:100EA00080F00C94A5060C94F0065F3FE4F3983EA6
:100EB000D4F3869577956795B795F795E7959F5FF6
:100EC000C1F7FE2B880F911D9695879597F9089588
:0E0ED0000E948106880B990B0895F894FFCFBD
:100EDE00000000009901F9002601E60157013501D5
:100EEE004901636D3D006E616E00696E66006F763E
:060EFE0066000D0A000071
:00000001FF
