:100000000C9462000C946A030C9443030C948A00D1
:100010000C948A000C948A000C948A000C948A0038
:100020000C948A000C948A000C948A000C948A0028
:100030000C948A000C948A000C948A000C948A0018
:100040000C94F9020C948A000C94B7030C9491035D
:100050000C948A000C948A000C948A000C948A00F8
:100060000C948A000C948A000000000023002600F3
:10007000290000000000240027002A0000000000E2
:10008000250028002B0004040404040404040202D4
:100090000202020203030303030301020408102007
:1000A0004080010204081020010204081020000012
:1000B0000008000201000003040700000000000027
:1000C00000005E0511241FBECFEFD8E0DEBFCDBF1C
:1000D00011E0A0E0B1E0EAE6FBE002C005900D927D
:1000E000AC33B107D9F721E0ACE3B1E001C01D9218
:1000F000A43EB207E1F710E0C2E6D0E004C02197C9
:10010000FE010E94AD05C136D107C9F70E94E9037F
:100110000C94B3050C940000833081F028F48130F6
:1001200099F08230A9F008958730A9F08830C9F09D
:100130008430B1F4809180008F7D03C08091800075
:100140008F7780938000089584B58F7784BD08955C
:1001500084B58F7DFBCF8091B0008F778093B00006
:1001600008958091B0008F7DF9CF1F93CF93DF93D7
:10017000282F30E0F901E255FF4F8491F901E6564E
:10018000FF4FD491F901EA57FF4FC491CC23A9F056
:10019000162F81110E948C00EC2FF0E0EE0FFF1F54
:1001A000E458FF4FA591B4918FB7F894EC911111D9
:1001B00008C0D095DE23DC938FBFDF91CF911F91D4
:1001C0000895DE2BF8CFCF93DF9390E0FC01E65645
:1001D000FF4F24918A579F4FFC0184918823D1F0CF
:1001E00090E0880F991FFC01EE58FF4FA591B49144
:1001F000FC01E458FF4FC591D491623071F49FB770
:10020000F8943C91822F809583238C93E8812E2B48
:1002100028839FBFDF91CF9108958FB7F894EC9119
:100220002E2B2C938FBFF6CF3FB7F89480914301CC
:1002300090914401A0914501B091460126B5A89B3B
:1002400005C02F3F19F00196A11DB11D3FBFBA2F68
:10025000A92F982F8827BC01CD01620F711D811D28
:10026000911D42E0660F771F881F991F4A95D1F7AD
:1002700008958F929F92AF92BF92CF92DF92EF92AA
:10028000FF920E9414014B015C0184EFC82EDD2413
:10029000D394E12CF12C0E941401681979098A0980
:1002A0009B09683E734081059105A8F321E0C21ABD
:1002B000D108E108F10888EE880E83E0981EA11CA1
:1002C000B11CC114D104E104F10429F7FF90EF90AF
:1002D000DF90CF90BF90AF909F908F9008958091C6
:1002E0003C0190913D01019690933D0180933C012A
:1002F00008950895AF92BF92CF92DF92EF92FF924E
:100300000F931F93CF93DF936C017B018B01040F3D
:10031000151FEB015E01AE18BF08C017D10759F0D9
:100320006991D601ED91FC910190F081E02DC6011B
:100330000995892B79F7C501DF91CF911F910F9115
:10034000FF90EF90DF90CF90BF90AF900895FC01A9
:10035000538D448D252F30E0842F90E0821B930B2A
:10036000541710F0CF96089501970895FC01918DD0
:10037000828D981761F0A28DAE0FBF2FB11D5D96D3
:100380008C91928D9F5F9F73928F90E008958FEF75
:100390009FEF0895FC01918D828D981731F0828D29
:1003A000E80FF11D858D90E008958FEF9FEF089580
:1003B000FC01918D228D892F90E0805C9F4F821BE4
:1003C00091098F739927089587E491E00E94D801DD
:1003D00021E0892B09F420E0822F089580E090E04D
:1003E000892B29F00E94E40181110C9400000895EA
:1003F000FC01A48DA80FB92FB11DA35ABF4F2C919A
:10040000848D90E001968F739927848FA689B78990
:100410002C93A089B1898C91837080648C93938D87
:10042000848D981306C00288F389E02D80818F7D2A
:1004300080830895EF92FF920F931F93CF93DF93E2
:10044000EC0181E0888F9B8D8C8D98131AC0E88910
:10045000F989808185FF15C09FB7F894EE89FF89DF
:100460006083E889F98980818370806480839FBF7D
:1004700081E090E0DF91CF911F910F91FF90EF907D
:100480000895F62E0B8D10E00F5F1F4F0F7311278D
:10049000E02E8C8D8E110CC00FB607FCFACFE889C8
:1004A000F989808185FFF5CFCE010E94F801F1CF57
:1004B000EB8DEC0FFD2FF11DE35AFF4FF0829FB73C
:1004C000F8940B8FEA89FB8980818062CFCFCF932C
:1004D000DF93EC01888D8823B9F0AA89BB89E8896C
:1004E000F9898C9185FD03C0808186FD0DC00FB612
:1004F00007FCF7CF8C9185FFF2CF808185FFEDCF90
:10050000CE010E94F801E9CFDF91CF910895FC015F
:1005100001900020E9F73197AF01481B590BBC014E
:1005200087E491E00C947A018F929F92AF92BF92F0
:100530000F931F93CF93DF93CDB7DEB7A1970FB67D
:10054000F894DEBF0FBECDBF19A2423008F44AE0D6
:100550008E010F5D1F4F842E912CB12CA12CA50173
:1005600094010E948B05E62FB901CA01EA30F4F428
:10057000E05DD801EE938D01232B242B252B79F7F9
:1005800090E080E0109719F0CD010E948702A196BB
:100590000FB6F894DEBF0FBECDBFDF91CF911F9194
:1005A0000F91BF90AF909F908F900895E95CE1CF3D
:1005B000CF92DF92EF92FF92CF93DF936B017C019A
:1005C0006DE287E491E00E941A02EC01662777272A
:1005D000CB016C197D098E099F094AE00E949402A3
:1005E0008C0F9D1FDF91CF91FF90EF90DF90CF9008
:1005F00008951F920F920FB60F9211242F933F93DD
:100600008F939F93AF93BF9380913F01909140014F
:10061000A0914101B091420130913E0123E0230FAE
:100620002D3758F50196A11DB11D20933E018093F1
:100630003F0190934001A0934101B093420180910A
:10064000430190914401A0914501B091460101966A
:10065000A11DB11D8093430190934401A0934501D6
:10066000B0934601BF91AF919F918F913F912F9190
:100670000F900FBE0F901F90189526E8230F02963B
:10068000A11DB11DD2CF1F920F920FB60F92112450
:100690002F933F934F935F936F937F938F939F938A
:1006A000AF93BF93EF93FF93E0910201F0910301A9
:1006B0000995FF91EF91BF91AF919F918F917F919C
:1006C0006F915F914F913F912F910F900FBE0F90BF
:1006D0001F9018951F920F920FB60F9211242F930F
:1006E0003F934F935F936F937F938F939F93AF93BA
:1006F000BF93EF93FF93E0910001F0910101099501
:10070000FF91EF91BF91AF919F918F917F916F91E9
:100710005F914F913F912F910F900FBE0F901F90BF
:1007200018951F920F920FB60F9211242F933F939B
:100730004F935F936F937F938F939F93AF93BF93E9
:10074000EF93FF9387E491E00E94F801FF91EF910E
:10075000BF91AF919F918F917F916F915F914F91D9
:100760003F912F910F900FBE0F901F9018951F92E1
:100770000F920FB60F9211242F938F939F93EF93A5
:10078000FF93E0915701F09158018081E0915D0164
:10079000F0915E0182FD1BC09081809160018F5FAE
:1007A0008F7320916101821741F0E0916001F0E0C8
:1007B000E95BFE4F958F80936001FF91EF919F91D0
:1007C0008F912F910F900FBE0F901F9018958081E1
:1007D000F4CF789484B5826084BD84B5816084BD93
:1007E00085B5826085BD85B5816085BD80916E00CF
:1007F000816080936E001092810080918100826000
:100800008093810080918100816080938100C0E8A5
:10081000D0E0809180008160809380008091B10061
:1008200084608093B1008091B00081608093B000BB
:1008300080917A00846080937A0080917A0082604F
:1008400080937A0080917A00816080937A00809111
:100850007A00806880937A001092C100E09157017D
:10086000F091580182E08083E0915301F0915401AE
:100870001082E0915501F091560180E18083109241
:100880005F01E0915B01F0915C0186E08083E09183
:100890005901F0915A01808180618083E091590172
:1008A000F0915A01808188608083E0915901F09134
:1008B0005A01808180688083E0915901F0915A014A
:1008C00080818F7D808361E08DE00E94E30062E0A3
:1008D00082E00E94E3008FE691E090930101809313
:1008E0000001809169008C7F826080936900E89AA2
:1008F00061E089E00E94E300E7EBF0E0E491E3309F
:1009000009F4BCC050F4E130D1F0E23009F4B0C0D9
:1009100061E089E00E94B50017C0E73009F4B8C073
:10092000E83009F4BEC0E43099F78091800080621D
:1009300080938000D0938B00C0938A0005C084B55B
:10094000806884BD80E887BD86E191E00E948702CF
:1009500085E291E00E94870290E4A92EC5EBD0E0E9
:1009600001EA10E02DE8E22E20E0F22E30E0C32E66
:1009700030E0D32E61E08DE00E94B5000E94390185
:1009800060E08DE00E94B5000E94390188E291E0AC
:100990000E9487022FB7F89460913F017091400147
:1009A00080914101909142012FBF4AE00E94940240
:1009B0008BE291E00E948702A0927C0080917A00F5
:1009C000806480937A0080917A0086FDFCCF6091EC
:1009D000780070917900072E000C880B990B97FF17
:1009E00069C00E94D80280E391E00E948702FE0164
:1009F0008491F801B490F701949070E060E0992040
:100A000099F081110E948C00E92DF0E0EE0FFF1F9C
:100A1000E859FF4FA591B4918C91B82291E080E004
:100A200009F490E0692F782F072E000C880B990BA2
:100A30004AE00E94940285E391E00E94870260915F
:100A40003C0170913D0190E080E04AE00E949402F8
:100A500085E291E00E948702C114D10409F48ACF93
:100A60000E94E401882309F485CF0E94000082CF10
:100A700084B5806284BD80E888BD66CF80918000A7
:100A8000806880938000D0938900C09388005CCFF9
:100A90008091B00080688093B00080E88093B300BC
:100AA00053CF8091B00080628093B00080E8809343
:100AB000B4004ACF4AE00E94940295CFE7E4F1E007
:100AC0001382128288EE93E0A0E0B0E084839583E5
:100AD000A683B78388E091E09183808385EC90E0E2
:100AE0009587848784EC90E09787868780EC90E0F8
:100AF000918B808B81EC90E0938B828B82EC90E0E9
:100B0000958B848B86EC90E0978B868B118E128E62
:100B1000138E148E0895A1E21A2EAA1BBB1BFD0191
:100B20000DC0AA1FBB1FEE1FFF1FA217B307E407CC
:100B3000F50720F0A21BB30BE40BF50B661F771F24
:100B4000881F991F1A9469F7609570958095909504
:100B50009B01AC01BD01CF010895EE0FFF1F059071
:0A0B6000F491E02D0994F894FFCF02
:100B6A0079017901000000001A027A01A7016702DF
:100B7A00D801B601CA0148656C6C6F2066726F6D48
:100B8A0020556E6F000D0A00743D002061303D0053
:0C0B9A002064373D0020686974733D0042
:00000001FF
